:1000000000800020A5280000D1280000D128000091
:10001000D1280000D1280000D1280000D1280000FC
:10002000D1280000D1280000D1280000D1280000EC
:10003000D1280000D1280000D1280000D1280000DC
:10004000D128000079230000D1280000D128000029
:10005000D1280000D1280000D1280000D1280000BC
:10006000D1280000D1280000D1280000A1230000E1
:10007000D1280000D1280000D1280000D12800009C
:10008000D1280000D1280000D1280000D12800008C
:10009000D1280000D1280000D1280000D12800007C
:1000A000D1280000D1280000D1280000D12800006C
:1000B000D1280000D1280000D1280000D12800005C
:1000C000D1280000D1280000D1280000D12800004C
:1000D000D1280000D1280000D1280000D12800003C
:1000E00010B5054C237833B9044B13B10448AFF372
:1000F00000800123237010BD840000200000000058
:10010000143F000008B5064B1BB106480649AFF383
:1001100000800648036813B1054B03B1984708BD3A
:1001200000000000143F0000880000208000002034
:1001300000000000154B002B08BF134B9D46A3F594
:10014000803A00218B460F461348144A121A02F0D7
:10015000CDFD0F4B002B00D098470E4B002B00D04D
:1001600098470020002104000D000D48002802D00F
:100170000C48AFF3008002F093FD2000290000F04E
:100180005FFB02F08DFC00BF000008000080002033
:10019000000000000000000084000020300A002061
:1001A000000000000000000080B500AF00F006F87D
:1001B00000F018F800F056F880BD00BF80B500AF21
:1001C0005120052101F03AF90448012100F016FF01
:1001D0000348012100F012FF80BD00BF00120200A1
:1001E00000D20200B0B588B000AF1C4B07F1080484
:1001F0001D460FCD0FC495E8030084E803004FF4BB
:10020000E1333B6105233B7501237B750123BB75FE
:100210004FF400733B830023BB760023FB7600235F
:100220003B7707F108030E48194601F0B9FE002399
:100230003B7100237B710023BB710023FB71002302
:100240007B710023BB710023FB713B1D04481946E1
:1002500001F00AFF2037BD46B0BD00BFFC380000EA
:1002600000C4004080B400AF2A4B2A4AD26C22F06E
:100270000F0242F00202DA64264B264A126F22F085
:100280000F0242F004021A67224B224A126F22F038
:10029000F00242F010021A671E4B1E4A126F22F43F
:1002A000706242F480621A671A4B1A4A126F22F483
:1002B000704242F480421A67164B164AD2F89420D4
:1002C00022F4706242F48062C3F89420114B114A08
:1002D000D2F8942022F4704242F48042C3F8942071
:1002E0000D4B0D4A926A22F4E06242F480729A62E7
:1002F0000A4B0A4A526D22F4E06242F480725A6557
:10030000064B064A526D42F00F025A65BD465DF833
:10031000047B7047006000400060084000C400405B
:1003200080B400AFBD465DF8047B704780B483B0F5
:1003300000AF03463960FB71FB79052B03D83B689E
:100340000F2B00D800BF0A49FA791346DB0013448B
:100350009B000B4418335A683B6822FA03F303F0FE
:10036000010318460C37BD465DF8047B704700BF9B
:100370000060004090B585B000AFB9607B60034677
:10038000FB731346BB8112E0194B1B785A1CD1B288
:10039000174A11701C46BB685A1CBA601B78154876
:1003A000194601F0E9FE03461A46134B1A55FB7B2A
:1003B0005A1EFA73002BE7D112E00D4B1B785A1C22
:1003C000D1B20B4A11701C467B685A1C7A601B78AC
:1003D0000848194601F0D0FE03461A46064B1A5546
:1003E000BB895A1EBA81002BE7D11437BD4690BD98
:1003F000A800002000C400402001002080B500AF0C
:100400000A4B1A780A4B1B789A4208D0084B1B7883
:100410005A1CD1B2064A1170064AD35C04E0064861
:10042000002101F0A9FE0346184680BDA800002067
:10043000A90000202001002000C4004080B483B047
:1004400000AF0346FB71054B1B685A1C034B1A6037
:100450000C37BD465DF8047B704700BFA00000204C
:1004600090B585B000AF7860FFF7C8FF03461A4625
:100470007B681A707B681B78002B02D14FF0FF332A
:1004800013E07B6801337B600023FB6009E07C683C
:10049000631C7B60FFF7B2FF03462370FB680133E8
:1004A000FB60FB68022BF2DD002318461437BD46C3
:1004B00090BD00BFB0B588B004AF9A4BBB609A48FE
:1004C000FFF7CEFF0346002B00D086E10023FB6040
:1004D00009E0BC68631CBB60FFF790FF0346237014
:1004E000FB680133FB60FA688F4B1B6803F007035E
:1004F00019028D4B1B6803F47F431B0A0B439A427E
:10050000E7D3894B7B60884B1B6823F47F4323F040
:100510000703864A93427FD0844A934214D8844A80
:10052000934259D0824A934206D8824A934223D0BA
:10053000814A93424CD047E1804A934270D0804A2E
:10054000934200F0BD803FE17E4A934200F09780E5
:100550007C4A934207D87C4A934228D07B4A9342F4
:1005600000F0918030E17A4A934200F0AD80794A00
:10057000934200F0C08027E1774B1A68774B1A60EE
:10058000774802F00FFC774B00221A70764802F091
:1005900009FC764B02221A71744B754A1A60754B2E
:1005A0001C680520714900220023A04715E172480C
:1005B00002F0F8FB714802F0F5FB6C4B5E4A1A60E2
:1005C0006C4B1C680420694900220023A047FFE00F
:1005D0006B4802F0E7FBFBE06A4802F0E3FB6A4885
:1005E00002F0E0FB694B1A68604B5A60684B1A686E
:1005F0005E4B9A60674B1A685C4BDA605B4B00227B
:100600001A745A4B644A1A605A4B1C681120574995
:1006100000220023A047DBE0604802F0C3FBD7E0E4
:100620005F4802F0BFFB4F4B1B7883F00103DBB246
:10063000002B23D05B4802F0B5FB4C4B0B221A7108
:100640004A4B00225A71494B0B229A71474B9B79B6
:1006500003331A0A454B9B7903331B029BB21A439F
:10066000384B1343414A1360424B1C683F4B9B7904
:1006700007203E491A464C4BA047A9E0A8E04B484A
:1006800002F090FBA4E04A4802F08CFB354B0122BB
:100690001A70484802F086FB344B00221A71334B23
:1006A00001225A71314B00229A71304B424A1A6032
:1006B000304B1C6807202D4900220023A04787E00B
:1006C0003E4802F06FFB83E07B681B7919467B682C
:1006D0005B791A467B689B797868C07905467868AB
:1006E000007A04467868407A009501940290344874
:1006F00002F058FB6CE07B681B7919467B685B79DC
:100700001A467B689B797868C07905467868007AD4
:1007100004467868407A009501940290294802F0D6
:1007200041FB55E0240200202002002008000404C0
:10073000880003008800010008000300880004000E
:10074000080009000800030B0800030A8800030AD8
:100750008800030D8800030EA0000020A4000020E4
:1007600014390000AA0000202839000008010020E8
:100770000801030AF800002060390000A0390000D9
:10078000C8390000FC390000283A000004010020AC
:100790001C010020240A0020080D0404543A000023
:1007A0008C3A0000C03A000000000020F03A00003F
:1007B0002C3B0000603B000008030900883B000060
:1007C000C03B0000F83B0000054802F0EBFA00BF18
:1007D000044B1B685A1C034B1A601037BD46B0BD52
:1007E0002C3C0000A400002080B582B002AFFFF7CF
:1007F00097FDFFF7D9FC0E4B0D4A126842F4803288
:100800001A60002001F086FF01F060FD0020094918
:1008100001F06CFD0123009302200021012200233E
:1008200000F0FAFF044B054A1A60BD4680BD00BFC8
:1008300000C400403D040000F800002075030000E3
:1008400080B500AF234BC0221A70224BA8225A70E9
:10085000204B01229A701F4B0122DA701E4BFF229F
:100860001A701D4BFF225A701B4BFF229A701A4BB5
:100870000022DA70194BC0221A70184BA8225A7045
:10088000164B01229A70154B0122DA70FFF7ACFF6C
:1008900000F06EF8124802F085FA124801F096FF57
:1008A00002200021FFF742FD0346002B01D0FFF795
:1008B00001FE0D4B1A680D4B1B689A4205D80C4B74
:1008C0001A780C4B1B789A4202D0FFF7F3FDF0E741
:1008D000EFE700BF040100201C010020240A0020D3
:1008E0003C3C0000643C0000A0000020A40000206C
:1008F000A8000020A900002080B483B000AF786079
:100900004FF06043D3F8803E03F00103002B12D078
:100910004FF06043D3F8003E03F00103002B0AD0F0
:1009200000BF4FF060431B68002BFAD04FF06043CC
:100930007A68D2B21A707B6818460C37BD465DF8EB
:10094000047B704780B582B000AF0346FB71FB7932
:100950001846FFF7D1FF034618460837BD4680BD4D
:1009600080B400AF00231846BD465DF8047B704795
:1009700080B400AF334B334A526C42F400525A6495
:10098000314B314AD2F8202142F00402C3F8202131
:100990002D4B2D4AD2F8202122F44072C3F8202199
:1009A000294B294AD2F8B82022F47062C3F8B82043
:1009B000254B254AD2F8B82042F48062C3F8B8200B
:1009C000204B10221A6200BF1E4BDB6A03F020038B
:1009D000002BF9D01D4B1D4AD26842F08072DA60BC
:1009E0004FF060431A4AC3F8B02F4FF06043002223
:1009F000C3F8002E4FF060430022C3F8802E154B41
:100A00000222C3F8F020134B0F221A614FF060430B
:100A10000022C3F8402E104B104A1A604FF060437A
:100A20000F4AC3F8802E0B4B4FF48072C3F8042397
:100A30004FF060430122C3F8002EBD465DF8047BF1
:100A4000704700BF00800C4000600040F0ED00E007
:100A500055CEACC5000004E0001000E0FE030040ED
:100A60000D00010080B487B000AFF860B9607A6013
:100A7000FB6803F10473DA00BB6813449B007B61DD
:100A80007B697A681A601C37BD465DF8047B704745
:100A900080B485B000AF7860284BDB6B002B0CBFB7
:100AA00000230123BB72254B41F67132DA63234BDD
:100AB0005B6803F00703FB60FB68012B01D9042B83
:100AC00002D10023FB7202E00123FB7200BF7A68AF
:100AD0001B4B9A4207D9FB7A002B01D0052300E07B
:100AE0000423FB6016E07A68154B9A420BD87A68AB
:100AF000144B9A4207D9FB7A002B01D0032300E064
:100B00000123FB6006E0FB7A002B01D0022300E00A
:100B10000023FB60094B094A526822F00701FA687A
:100B20000A435A60BB7A002B02D0044B0022DA63DE
:100B30001437BD465DF8047B704700BF00000C40D1
:100B40000048E8010024F40080B582B000AF044BF7
:100B50007B607868FFF79CFF0837BD4680BD00BF0B
:100B6000006CDC0280B487B000AF78607B68002B3B
:100B700004D07B68B3F5004F00D800BF7B683B61B1
:100B80003B69B3FA83F3FB60FB68DBB2C3F11F037D
:100B90007B617B6918461C37BD465DF8047B704756
:100BA00080B582B000AF104800F096FB0346FB70A2
:100BB000FB78032B07D0082B09D0022B0BD101F0B7
:100BC00063FF78600AE001F04BFF786006E001F017
:100BD000B3FE786002E000237B6000BF7B681846AC
:100BE0000837BD4680BD00BF05231C0080B483B01C
:100BF00000AF1A4B5B6903F4E063B3F5007F14D0D8
:100C0000B3F5007F05D8002B15D0B3F5807F0FD04A
:100C10001AE0B3F5C06F14D0B3F5E06F0ED0B3F5A2
:100C2000407F11D10E4B7B6011E00E4B7B600EE0DC
:100C30000D4B7B600BE00D4B7B6008E00C4B7B6049
:100C400005E00C4B7B6002E000237B6000BF7B680B
:100C500018460C37BD465DF8047B704700800C4099
:100C600040420F00C0CF6A00C0D8A700809FD500C7
:100C7000406F4001003FAB0180B582B000AF124829
:100C800000F02AFB0346FB70FB78072B0FD0082BE4
:100C900011D101F051FE78600C4B1B6803F4E03376
:100CA0009B0B01337A68B2FBF3F37B6006E0FFF73E
:100CB0009DFF786002E000237B6000BF7B681846E0
:100CC0000837BD4680BD00BF0400180000800C40FE
:100CD00080B584B000AF78607B68002B02D07B6861
:100CE000012B00D100BF264B9A6A7B685B0022FA79
:100CF00003F303F00303032B3AD801A252F823F0C5
:100D0000510D0000110D0000190D0000210D000013
:100D100001F0A6FEF8602EE001F0B6FEF8602AE0D1
:100D2000174B5B6803F48073002B05D1144B1B68D1
:100D300003F08043002B05D001F0DAFD03469B0849
:100D4000FB6018E001F0D4FD03465B08FB6012E095
:100D50000B4B9A6A7B6804339B0022FA03F3002B47
:100D600003D001F087FEF86005E00023FB6002E09D
:100D70000023FB6000BFFB6818461037BD4680BDEE
:100D800000800C4080B483B000AF7860094B5B6D8D
:100D900003F00103002B00D006E000BF054B1A6DE5
:100DA0007B681340002BF9D10C37BD465DF8047BFE
:100DB000704700BF00800C40B0B584B000AF7860D1
:100DC00039607B681B0903F00F03FB60FB68013B84
:100DD000042B00F2FC8001A252F823F0250E000043
:100DE0004F0E0000B70E00007B0F0000F10D000059
:100DF0003B68002B03D03B68082B00D800BFFFF7EF
:100E0000A3FE754B744A126822F4E0313A68013A45
:100E100092030A431A6001F06BFDB860B868FFF7EF
:100E200037FED5E03B68002B04D03B68B3F5007F6C
:100E300000D800BF3868FFF795FE3860664B664AF9
:100E4000926822F00F013A680A439A60C0E0FFF707
:100E50007BFE512000F042F902463B68B2FBF3F200
:100E60005E4B9A420AD85C481E210022FFF7FAFD29
:100E70005B4808210022FFF7F5FD09E056481E21D6
:100E80000122FFF7EFFD564808210122FFF7EAFD96
:100E90003868FFF767FE38604F4B4F4A526822F0C0
:100EA0000F013A680A435A6001F022FDB860B86841
:100EB000FFF7EEFD8CE07B684A4A93421ED0494A18
:100EC000934203D8484A934207D055E0474A934299
:100ED00025D0474A93423FD04EE00420FFF752FF0F
:100EE0003868FFF73FFE38603B4B3B4A926E22F07A
:100EF000F0013A6812010A439A663DE00420FFF7C8
:100F000041FF3868FFF72EFE3860334B324A926E4D
:100F100022F470613A6812020A439A662CE03B6838
:100F20000F2B03D93B68802B00D800BF0420FFF7AC
:100F300029FF3868FFF716FE3860274C264B9B6E5A
:100F400023F440551020FFF70DFE03463A68D31AEC
:100F50001B032B43A3660FE00420FFF713FF386841
:100F6000FFF700FE38601C4B1B4A926E22F0030113
:100F70003A680A439A6600BF2AE07B681D4A93429A
:100F800003D01D4A934210D020E04020FFF7FAFE24
:100F90003868FFF7E7FD38600F4B0F4A126F22F0F9
:100FA00003013A680A431A6710E04020FFF7EAFE9F
:100FB0003868FFF7D7FD3860074B074A126F22F0F9
:100FC00030013A6812010A431A6700BF00E000BF0F
:100FD0001037BD46B0BD00BF00800C4000366E012A
:100FE00004800C4030240A003014080030000C004B
:100FF00030041000400514004015160080B586B07E
:1010000000AF78600B46FB7000233B617B681B0AD6
:1010100003F00F03013B052B48D801A252F823F03F
:10102000391000003F100000451000006F10000054
:1010300079100000831000001E4B7B6124E01E4BE2
:101040007B6121E01D4B7B611D4800F047F80246A3
:101050001C4B9A420AD91C481E210122FFF702FDAF
:101060001A4808210122FFF7FDFC0DE00CE0184BA7
:101070007B6101233B6107E0164B7B6110233B61E1
:1010800002E0154B7B6100BF7B681B0B03F01F0365
:10109000FB603B69002B02D03869FFF773FEFB78D9
:1010A0007869F9681A46FFF7DDFC00E000BF1837E1
:1010B000BD4680BD08800C4044800C4040800C4000
:1010C0002000040000366E0100800C4004800C40BB
:1010D00058800C4060800C4078800C4090B585B002
:1010E00000AF78607B6803F47813B3F5602F00F0ED
:1010F0009980B3F5602F18D8B3F5C02F5ED0B3F543
:10110000C02F08D8B3F5003F3ED0B3F5802F51D0A3
:10111000002B2BD0D6E0B3F5202F62D0B3F5402FB3
:101120006DD0B3F5002F4ED0CCE0B3F5B01F00F07A
:10113000AF80B3F5B01F0CD8B3F5901F00F09680C8
:10114000B3F5A01F00F09780B3F5801F00F08180F9
:10115000B8E0B3F5D01F00F0AD80B3F5E01F00F0AC
:10116000AD80B3F5C01F00F0A180ABE001F0E4FB5F
:10117000F860584B1B6803F4E0339B0B0133FA68AB
:10118000B2FBF3F3FB60A0E001F0D6FBF860514B3B
:101190001B6803F4E0339B0B0133FA68B2FBF3F3F3
:1011A000FB604C4B9B6803F00F03FA6822FA03F3D1
:1011B000FB608AE001F09CFBF86086E00020FFF70E
:1011C00087FDF86081E00020FFF782FDF860414B69
:1011D0009B6E03F0F0031B09FA6822FA03F3FB602D
:1011E00073E00020FFF774FDF8603A4B9B6E03F448
:1011F00070631B0AFA6822FA03F3FB6065E00020C3
:10120000FFF766FDF860334B9B6E03F440531C0BF5
:101210001020FFF7A7FC03462344FA6822FA03F3E1
:10122000FB6052E00020FFF753FDF860294B9B6EF6
:1012300003F440531B0BFA6822FA03F3FB60254BBF
:10124000DB6F03F007030133FA68B2FBF3F3FB60D3
:101250003BE00020FFF73CFDF8601E4B9B6E03F067
:101260000303FA6822FA03F3FB602EE00120FFF784
:101270002FFDF86029E00120FFF72AFDF860154BEB
:101280001B6F03F00303FA6822FA03F3FB601CE010
:101290000120FFF71DFDF8600E4B1B6F03F03003BC
:1012A0001B09FA6822FA03F3FB600EE0FFF7E4FC87
:1012B000F8600AE0FFF79AFCF86006E0FFF770FCC0
:1012C000F86002E00023FB6000BFFB68184614379B
:1012D000BD4690BD00800C4080B487B000AF786000
:1012E0000123FB754FF470533B617B6803F00F03E0
:1012F000FB60FB68013B042B00F2938001A252F8D3
:1013000023F000BF191300004F1300008B130000DF
:10131000C7130000ED130000474BDA6A3B69134026
:10132000B3F5805F09D0B3F5005F03D0B3F5006F6C
:1013300006D008E00223FB7508E00323FB7505E0F7
:101340000423FB7502E00523FB7500BF6CE03A4BFC
:101350009B6A03F00303022B06D0032B07D0012B5B
:1013600008D10323FB750FE00223FB750CE0062375
:10137000FB7509E0304B9B6A03F48033002B02D0ED
:101380000923FB7500E000BF4EE02B4B9B6A03F086
:101390000C03082B06D00C2B07D0042B08D10323F9
:1013A000FB750FE00223FB750CE00623FB7509E0DB
:1013B000214B9B6A03F48013002B02D00923FB7599
:1013C00000E000BF30E00723FB751B4B1B6803F0F8
:1013D0008053002B03D0B3F1805F03D024E00723B8
:1013E000FB7502E00823FB7500BF1DE0124BDB6AB2
:1013F00003F46033B3F5803F06D0B3F5003F06D069
:10140000B3F5004F06D008E00223FB7508E0032384
:10141000FB7505E00823FB7502E00123FB7500BFA7
:1014200002E00023FB7500BFFB7D18461C37BD465C
:101430005DF8047B704700BF00800C4080B588B029
:1014400000AF78600B46FB700323FB610323FB7640
:1014500000237B617B6803F00F03FB60FB68013BAB
:10146000042B00F2268101A252F823F0811400001F
:101470004915000049150000211600004B16000018
:10148000FB78023B072B00F2168101A252F823F0F1
:10149000B1140000BB140000C514000015150000B5
:1014A000B7160000B7160000B71600001F150000A1
:1014B0000423FB610023FB7632E00323FB6101235D
:1014C000FB762DE00223FB610223FB7601F0ACFAF0
:1014D00002467C4B9A4213D97B4A7B4B1B6843F0F4
:1014E000804343F060031360774B1B6C03F01003E1
:1014F000002B0ED0754808210122FFF7B3FA0FE048
:10150000714B714A126822F0600242F020021A60A8
:1015100006E005E00123FB610323FB7600E000BF4A
:10152000FB7E18460121012200F0F2F8FFF70CFBC8
:10153000654BFA695A6200F04BF901F0D9F9B860CD
:10154000B868FFF7A5FAB9E0FB78013B082B00F279
:10155000B48001A252F823F07D150000831500002D
:1015600093150000BB160000BB160000A315000079
:10157000BB160000BB160000D715000000233B611E
:101580002EE000200121012200F0C2F802233B617D
:1015900026E001200121012200F0BAF801233B617D
:1015A0001EE04B4804210122FFF75CFA03233B6154
:1015B00001F09EF9B860BA68424B9A420AD9424893
:1015C0001E210122FFF74EFA404808210122FFF7B1
:1015D00049FA05E004E000233B6101237B6100BF81
:1015E000FB68022B0DD1384A374B9B6A23F48033BA
:1015F00023F00303396919437B691B040B4393628E
:101600005CE0314A304B9B6A23F4801323F00C03D7
:101610003969890019437B691B050B4393624DE0CF
:10162000FB78072B02D0082B07D047E0264B264A31
:10163000126822F080521A6006E0234B224A126898
:1016400042F080521A6000BF38E0FB78032B14D0C0
:10165000082B22D0022B00D030E0002001210122F3
:1016600000F056F8184B40225A6200BF164BDB6A56
:1016700003F48033002BF9D01AE00120012101226C
:1016800000F046F8104B60225A6200BF0E4BDB6A36
:1016900003F40033002BF9D00AE00B4B20225A62EE
:1016A00000BF094BDB6A03F40043002BF9D000BFF5
:1016B00004E000BF02E000BF00E000BF2037BD46ED
:1016C00080BD00BF00366E0100800C4004800C40DD
:1016D00040800C4080B483B000AF78600B4B9B6DB2
:1016E00003F00803002B00D00BE07B6803F0070336
:1016F0007B60064B054AD26F22F007017A680A43E5
:10170000DA670C37BD465DF8047B704700800C40FB
:1017100080B586B000AF13460246FA710A46BA7128
:101720007B71FB79052B4CD801A252F823F000BF46
:1017300081170000731700005717000049170000B9
:1017400065170000C317000001233B610223FB6003
:1017500002237B611EE004233B610823FB60082316
:101760007B6117E010233B612023FB6020237B611A
:1017700010E040233B618023FB6080237B6109E014
:101780004FF480733B614FF40073FB604FF40073C0
:101790007B6100BFBB79002B0DD00C4B3A691A62FC
:1017A0007B79002B0AD000BF084BDA6A7B691340B3
:1017B000002BF9D002E0054BFA681A6200F008F835
:1017C00000E000BF1837BD4680BD00BF00800C4060
:1017D00080B400AF034BDA6A034B1A60BD465DF874
:1017E000047B704700800C40AC00002080B487B0C0
:1017F00000AFF860B9607A60FB6803F10473DA0047
:10180000BB6813449B007B617B697A681A601C3754
:10181000BD465DF8047B704780B584B000AF396089
:101820000146F971BA717B71FB79052B03D83B68CE
:101830000F2B00D800BF3B68072B13D8224B224A3E
:10184000D2F800113A6892000F2000FA02F2D24357
:101850001140F8793A68920000FA02F20A43C3F89C
:10186000002115E03B68083BFB60174B164AD2F895
:101870000411FA6892000F2000FA02F2D2431140DC
:10188000F879FA68920000FA02F20A43C3F80421D8
:10189000BB790E4839681A46FFF7A8FF7B790C48D8
:1018A00039681A46FFF7A2FF074B3A68012101FA8F
:1018B00002F2C3F81C213B7E064839681A46FFF73E
:1018C00095FF1037BD4680BD0060004008610040B4
:1018D0000C6100401061004080B483B000AF03464B
:1018E000FB71FB79002B06D0084B084A126842F0C6
:1018F00001021A6005E0054B044A126822F0010259
:101900001A600C37BD465DF8047B704700A00840A4
:1019100080B487B000AFF860B9607A60FB6803F10B
:101920000473DA00BB6813449B007B617B697A68AF
:101930001A601C37BD465DF8047B704780B584B0E3
:1019400000AF7860184B5B68FB600020FFF7C4FFB6
:10195000FB6823F4830323F01F03FB607B685B6851
:10196000FA681343FB607B681B7AFA681343FB60D9
:101970007B685B7AFA681343FB607B68DB68FA6814
:101980001343FB607B681B8AFA681343FB60064BBA
:10199000FA685A607B681B78002B02D00120FFF7A1
:1019A0009BFF1037BD4680BD00A0084080B485B0C5
:1019B00000AF78600D4B5B68FB60FB6823F48033FD
:1019C000FB607B68002B08D0B3F5803F00D005E0BA
:1019D000FB6843F48033FB6000E000BF034BFA6810
:1019E0005A601437BD465DF8047B704700A008407C
:1019F00080B483B000AF02460B46FA807B717B79DE
:101A0000002B06D0094B094A9168FA880A439A606C
:101A100006E0064B054A9168FA88D2430A409A606C
:101A20000C37BD465DF8047B704700BF00A008403E
:101A300080B584B000AFF860B9601346FB71FB68F5
:101A4000072B00F2C38001A252F823F06D1A0000A8
:101A5000991A0000C51A0000F11A00001D1B0000B1
:101A6000491B0000751B0000A11B0000BB681F2B59
:101A700007DCBA68FB79574811461A46FFF748FF5A
:101A8000A5E0BB68203BBB60BA68FB7952481146B1
:101A90001A46FFF73DFF9AE0BB681F2B07DCBA68C8
:101AA000FB794E4811461A46FFF732FF8FE0BB68BC
:101AB000203BBB60BA68FB79494811461A46FFF7DC
:101AC00027FF84E0BB681F2B07DCBA68FB79454819
:101AD00011461A46FFF71CFF79E0BB68203BBB604C
:101AE000BA68FB79404811461A46FFF711FF6EE0CD
:101AF000BB681F2B07DCBA68FB793C4811461A46C5
:101B0000FFF706FF63E0BB68203BBB60BA68FB7968
:101B1000374811461A46FFF7FBFE58E0BB681F2BFB
:101B200007DCBA68FB79334811461A46FFF7F0FE26
:101B30004DE0BB68203BBB60BA68FB792E4811467C
:101B40001A46FFF7E5FE42E0BB681F2B07DCBA68C8
:101B5000FB792A4811461A46FFF7DAFE37E0BB68E0
:101B6000203BBB60BA68FB79254811461A46FFF74F
:101B7000CFFE2CE0BB681F2B07DCBA68FB7921483D
:101B800011461A46FFF7C4FE21E0BB68203BBB604C
:101B9000BA68FB791C4811461A46FFF7B9FE16E0F1
:101BA000BB681F2B07DCBA68FB79184811461A4638
:101BB000FFF7AEFE0BE0BB68203BBB60BA68FB7969
:101BC000134811461A46FFF7A3FE00E000BF103786
:101BD000BD4680BD40A0084050A0084044A0084039
:101BE00054A0084048A0084058A008404CA0084015
:101BF0005CA00840CCA00840B4A00840D0A0084099
:101C0000B8A00840D4A00840BCA00840D8A0084014
:101C1000C0A0084080B487B000AFF860B9607A60B7
:101C2000FB68072B00F2AC8001A252F823F000BF42
:101C3000511C0000751C0000991C0000BD1C000018
:101C4000E11C0000091D0000311D0000591D0000AD
:101C50004E4B1B6C7B61BB68DB437A6913407B6135
:101C6000BA687B6813407A6913437B61474B7A6992
:101C70001A6486E0454B5B6C7B61BB68DB437A6929
:101C800013407B61BA687B6813407A6913437B61B8
:101C90003E4B7A695A6474E03C4B9B6C7B61BB6839
:101CA000DB437A6913407B61BA687B6813407A69C9
:101CB00013437B61354B7A699A6462E0334BDB6C8A
:101CC0007B61BB68DB437A6913407B61BA687B68E0
:101CD00013407A6913437B612C4B7A69DA6450E0D4
:101CE0002A4BD3F8CC307B61BB68DB437A69134065
:101CF0007B61BA687B6813407A6913437B61234B2D
:101D00007A69C3F8CC203CE0204BD3F8D0307B611B
:101D1000BB68DB437A6913407B61BA687B68134018
:101D20007A6913437B61194B7A69C3F8D02028E0A4
:101D3000164BD3F8D4307B61BB68DB437A69134020
:101D40007B61BA687B6813407A6913437B610F4BF0
:101D50007A69C3F8D42014E00C4BD3F8D8307B61F7
:101D6000BB68DB437A6913407B61BA687B681340C8
:101D70007A6913437B61054B7A69C3F8D82000E088
:101D800000BF1C37BD465DF8047B704700A00840CB
:101D900080B487B000AFF860B9607A60FB68072B49
:101DA00000F2AC8001A252F823F000BFCD1D00006C
:101DB000F11D0000151E0000391E00005D1E000010
:101DC000851E0000AD1E0000D51E00004E4B1B6D91
:101DD0007B61BB68DB437A6913407B61BA687B68CF
:101DE00013407A6913437B61474B7A691A6586E031
:101DF000454B5B6D7B61BB68DB437A6913407B615C
:101E0000BA687B6813407A6913437B613E4B7A69F9
:101E10005A6574E03C4B9B6D7B61BB68DB437A6920
:101E200013407B61BA687B6813407A6913437B6116
:101E3000354B7A699A6562E0334BDB6D7B61BB6839
:101E4000DB437A6913407B61BA687B6813407A6927
:101E500013437B612C4B7A69DA6550E02A4BD3F847
:101E6000B4307B61BB68DB437A6913407B61BA683D
:101E70007B6813407A6913437B61234B7A69C3F80B
:101E8000B4203CE0204BD3F8B8307B61BB68DB4327
:101E90007A6913407B61BA687B6813407A6913439F
:101EA0007B61194B7A69C3F8B82028E0164BD3F848
:101EB000BC307B61BB68DB437A6913407B61BA68E5
:101EC0007B6813407A6913437B610F4B7A69C3F8CF
:101ED000BC2014E00C4BD3F8C0307B61BB68DB4303
:101EE0007A6913407B61BA687B6813407A6913434F
:101EF0007B61054B7A69C3F8C02000E000BF1C3746
:101F0000BD465DF8047B704700A0084080B483B0F4
:101F100000AF7860064B064A526822F4E0117A68F6
:101F20000A435A600C37BD465DF8047B704700BF1A
:101F300000A0084080B586B000AFF860B9607A6054
:101F4000BB68002B03D11448FFF7C8F8B860BB6822
:101F50005B007B617A687B691344013B7B617A6932
:101F60007B68B2FBF3F37B617B69043B7B617B693C
:101F70009B017B617B69C0337B617B6923F0FF033D
:101F80007B617A69054B13407B61FB687A695A6112
:101F90001837BD4680BD00BF10810200C0FF1F0082
:101FA00080B582B000AF786039607A682B4B9A4276
:101FB00007D07A682A4B9A4203D07A68294B9A4212
:101FC00000D100BF786800F07FF87B681A683B6832
:101FD0001B8A43F001039BB219463B689B7B002B95
:101FE00002D04FF4806300E000230B431A437B6868
:101FF0001A607B6819683B689B7C002B01D010221B
:1020000000E000223B681B7D002B02D04FF0005304
:1020100000E00023134341EA03027B681A603B6837
:102020001B7B43F480527B685A603B685A683B686C
:102030009B68786811461A46FFF77CFF3B685B7B1C
:10204000002B02D07B681022DA603B681B781A46AE
:102050007B68DA600837BD4680BD00BF00C0004025
:1020600000C4004000C8004080B485B000AF786074
:1020700039607B689B6823F07703FB603B681B78C3
:10208000002B03D0FB6843F04003FB603B689B7868
:10209000002B03D0FB6843F02003FB603B685B78B8
:1020A000002B03D0FB6843F01003FB603B68DB7838
:1020B000FA681343FB607B68FA689A601437BD4680
:1020C0005DF8047B704700BF80B483B000AF7860D8
:1020D0007A68244B9A420FD07A68234B9A420BD0ED
:1020E0007A68224B9A4207D07A68214B9A4203D0F1
:1020F0007A68204B9A4200D100BF7B6840F6AA6202
:10210000DA607B6800221A607B6841F205025A603F
:102110007B6800229A607B6800225A617B680022FB
:10212000DA647B6841F6F9729A647B6800225A652A
:102130007A680C4B9A4202D17B6800221A657B6850
:1021400000229A657A68084B9A4203D07A68074B56
:102150009A4202D17B680022DA650C37BD465DF8F1
:10216000047B704700C0004000C4004000C800402D
:1021700000E0004000E4004080B483B000AF78602D
:102180000B46FB7000BF7B681B6903F04003002B0C
:10219000F9D0FA787B685A6300BF7B681B6903F04B
:1021A0002003002BF9D07B68DB69DBB218460C37C3
:1021B000BD465DF8047B704780B483B000AF034632
:1021C000FB71084B97F907205209F97901F01F01BB
:1021D000012000FA01F143F822100C37BD465DF8EA
:1021E000047B704700E100E080B483B000AF034699
:1021F000FB71094B97F907205209F97901F01F018A
:10220000012000FA01F1603243F822100C37BD467C
:102210005DF8047B704700BF00E100E080B483B04C
:1022200000AF7860044B7A68C3F81C210C37BD46B8
:102230005DF8047B704700BF0060004080B483B04D
:1022400000AF074BD3F810317B60054BD3F8142156
:102250007B68134018460C37BD465DF8047B704719
:102260000060004080B400AF72B6084B1B68B3F149
:10227000FF3F04D0054B1B685A1C044B1A60034BEC
:102280001B681846BD465DF8047B7047B00000200F
:1022900080B483B000AF0C4B1B68002B0DD00A4BF1
:1022A0001B685A1E084B1A60074B1B687B607B68D3
:1022B000002B00D162B67B6800E0002318460C3783
:1022C000BD465DF8047B7047B000002080B500AFCC
:1022D0000B20FFF789FF0B20FFF76EFF0120FFF7B0
:1022E00083FF0120FFF768FF80BD00BF80B582B08B
:1022F00000AF03463960FB71FFF7B4FFFA79044B76
:10230000396843F82210FFF7C3FF0837BD4680BD88
:10231000B400002080B588B000AF786023E07B680F
:102320007B617B6993FAA3F33B613B69FB60FB68CC
:10233000B3FA83F3BB60BB68DBB2FB61FB690122CC
:1023400002FA03F3DB437A6813407B60094BFA69B6
:1023500053F82230BB61BB69002B04D0FB69DAB2B1
:10236000BB69104698477B68002BD8D12037BD4603
:1023700080BD00BFB400002080B582B000AFFFF781
:102380005DFF024645F2555313407B607868FFF7C6
:1023900045FF7868FFF7BEFF0837BD4680BD00BF28
:1023A00080B582B000AFFFF749FF02464AF6AA2384
:1023B00013407B607868FFF731FF7868FFF7AAFF6A
:1023C0000837BD4680BD00BF80B483B000AF7860E1
:1023D000002318460C37BD465DF8047B704700BFEC
:1023E00080B483B000AF7860FEE700BF80B483B0F4
:1023F00000AF786039603B684FF400525A600023A8
:1024000018460C37BD465DF8047B704780B483B036
:1024100000AF7860012318460C37BD465DF8047B99
:10242000704700BF80B485B000AFF860B9607A60D3
:10243000002318461437BD465DF8047B704700BF83
:1024400080B586B000AFF860B9607A6000237B6128
:1024500011E0FEF785FA38613B69B3F1FF3F09D01F
:10246000BB685A1CBA603A69D2B21A707B690133F0
:102470007B6100E004E07B685A1E7A60002BE8D1A3
:102480007B69002B02DC4FF0FF3300E07B691846CC
:102490001837BD4680BD00BF90B585B000AF7860ED
:1024A000184B1B68002B02D1164B174A1A60154BAC
:1024B0001B68FB60134B1A687B681A44EFF30883B0
:1024C0001C4623469A4212D9104B1B689B6818463B
:1024D00000F0FAFA04460E4800F0CFFC034620460E
:1024E0000B491A4600F016F8012000F0D9FA054B06
:1024F0001A687B681A44034B1A60FB681846143745
:10250000BD4690BDF4000020300A00207400002079
:10251000703C000080B586B000AFF860B9607A60AA
:1025200000237B6109E0BB685A1CBA601B7818461F
:10253000FEF708FA7B6901337B617A697B689A420E
:10254000F1DB7B6818461837BD4680BD80B483B088
:1025500000AF0346FB71FB79002B03D0054B012232
:102560001A6602E0034B00221A660C37BD465DF87E
:10257000047B704700A0084080B483B000AF78604F
:1025800000BF054B5A6E7B681340002BF9D10C3706
:10259000BD465DF8047B704700A0084080B483B05E
:1025A00000AF7860054B054A916A7A68D2430A40C9
:1025B0009A620C37BD465DF8047B704700A0084066
:1025C00080B500AF002028490022FFF723FB01203F
:1025D00025490022FFF71EFB022023490022FFF7B6
:1025E00019FB032020490022FFF714FB04201E4999
:1025F0000022FFF70FFB05201B490022FFF70AFB13
:10260000062019490022FFF705FB07201649002282
:10261000FFF700FB0020FF210022FFF7B9FB01209C
:10262000FF210022FFF7B4FB0220FF210022FFF769
:10263000AFFB0320FF210022FFF7AAFB0420FF21AC
:102640000022FFF7A5FB0520FF210022FFF7A0FBDA
:102650000620FF210022FFF79BFB0720FF2100221D
:10266000FFF796FB80BD00BF00F00FF080B500AF14
:10267000072026490022FFF7CDFA06202449002230
:10268000FFF7C8FA052022490022FFF7C3FA042009
:102690001F490022FFF7BEFA03201D490022FFF761
:1026A000B9FA02201A490022FFF7B4FA01201849AA
:1026B0000022FFF7AFFA00204FF020410022FFF781
:1026C000A9FA072007210022FFF762FB0620072155
:1026D0000022FFF75DFB052007210022FFF758FBD2
:1026E000042007210022FFF753FB032007210022CB
:1026F000FFF74EFB022007210022FFF749FB0120D4
:1027000007210022FFF744FB00BF80BD00E00F500F
:1027100000E00FF080B582B000AF0346FB712548A2
:102720000121FEF76BFC24480321FEF787FE2348B6
:102730004021FEF741FB0120FEF7CCFF204801219C
:10274000FEF75CFC4FF0FF30FFF728FF1D48FFF756
:10275000F5F808200121FFF74BF910200121FFF7C0
:1027600047F980200121FFF743F94FF480700121E0
:10277000FFF73EF94FF400700121FFF739F9FB79BB
:10278000002B0DD04FF44020FFF7C0FB4FF48030FA
:10279000FFF70CF90C4B0C4AD26F42F00802DA67D3
:1027A000FFF70EFF4FF0FF30FFF7E6FE0837BD469C
:1027B00080BD00BF004304000200060030000C0092
:1027C00000340E00643E000000800C4080B58AB0EA
:1027D00000AF7860786800F050FB0346BB610023CF
:1027E0003B624FF0FF30FFF7C7FE0120FFF7AEFE60
:1027F000FFF73CFF00233B6246E03A6ABB699A421E
:1028000003DA7B681B787B6201E020237B627B6AB2
:10281000203B7B62214B7A6A33F81230FB82002323
:10282000FB6128E01E493A6A1346DB009B1A9B00B5
:10283000CA18FB69134408339B793B6118493A6A0B
:102840001346DB009B1A9B00FA6913440B441B7868
:10285000FB60FA8AFB6942FA03F303F00103002BE1
:1028600006D0FA683B69104619460122FFF7E0F8E6
:10287000FB690133FB61FB690D2BD3DD7B68013301
:102880007B603B6A01333B623B6A062BB5DD00206F
:10289000FFF75CFE2837BD4680BD00BFAC3D0000A1
:1028A0008C3C0000064880470649074A074B9A427D
:1028B000BEBF51F8040B42F8040BF8E7FDF73AFCF1
:1028C000412A0000203F000000000020840000207A
:1028D000FEE700BF80B400AF044BDB6C1B0EDBB225
:1028E0001846BD465DF8047B704700BFB081E00F1D
:1028F00080B582B000AF00F01FF878600C4B1B6809
:1029000003F4E0339B0B01337A68B2FBF3F37B6093
:10291000074B5B6803F00F037A6822FA03F37B60CE
:10292000044B7A681A607B6818460837BD4680BD3C
:1029300000800C40280A002080B582B000AF2F4BE9
:10294000DB6A03F47053B3F5805F0AD0B3F5005F20
:1029500003D0B3F5006F08D00BE0294B1B687B60F8
:1029600047E04FF400437B6043E0264B1B687B60ED
:102970003FE0224BDB6803F4E063B3F5007F1BD03C
:10298000B3F5007F05D8002B24D0B3F5807F16D097
:102990002BE0B3F5806F09D0B3F5A06F03D0B3F58A
:1029A000407F06D021E0184B7B6021E0174B7B6015
:1029B0001EE0174B7B601BE0164B7B6018E0FFF7B7
:1029C00089FF0346122B02D9134B7B6010E0134B97
:1029D0007B600DE0FFF77EFF0346122B02D9104B00
:1029E0007B6005E00F4B7B6002E000237B6000BF53
:1029F00000BF7B6818460837BD4680BD00800C408C
:102A0000100000200C000020003FAB01406F40018F
:102A1000809FD500C0D8A70040B56400C0CF6A0031
:102A2000804F120040420F0080B400AF034B1B6880
:102A30001846BD465DF8047B704700BF0C000020BF
:102A400080B400AF054B054AD2F8882042F47002EA
:102A5000C3F88820BD465DF8047B704700ED00E0B8
:102A600080B400AF4FF400431846BD465DF8047BC8
:102A7000704700BF80B400AF4FF47A731846BD466C
:102A80005DF8047B704700BF80B400AF034B1B6848
:102A90001846BD465DF8047B704700BF100000205B
:102AA00008B5074B044613B10021AFF30080054B76
:102AB0001868836A03B198472046FFF791FC00BF6E
:102AC00000000000DC3E0000124B70B51D6804469B
:102AD0001E4625B1AA6912B9284600F077F80E4BB8
:102AE0009C4201D16C6808E00C4B9C4201D1AC685F
:102AF00003E00B4B9C4208BFEC68B4F90C3013B1F7
:102B0000B4F90E0070BD336809221A604FF0FF302F
:102B100070BD00BF74000020783E0000983E0000A9
:102B2000B83E0000F8B5074600F1480494B1A56826
:102B30006668013E0CD4AB89012B07D9B5F90E307C
:102B4000013303D03846294600F0BAFD6835F0E776
:102B50002468EBE7F8BD0000002310B504460360CD
:102B60004360836081814366C28103614361836105
:102B700019465C30082200F0B9F8054B6362054B3A
:102B8000A362054BE362054B2462236310BD00BFC3
:102B9000F52D0000172E00004F2E0000732E0000B0
:102BA00070B54B1E68255D430E4605F1740100F0BB
:102BB000A5F8044640B1002180E842000C30A06036
:102BC00005F1680200F092F8204670BD836910B5E7
:102BD000044633BB8364C3640365124B124A1B680B
:102BE0008262984204BF0123836100F01FF8606095
:102BF000204600F01BF8A060204600F017F80421E2
:102C0000E06000226068FFF7A7FFA06809210122A9
:102C1000FFF7A2FFE06812210222FFF79DFF0123C8
:102C2000A36110BDDC3E0000252B0000F8B51B4B56
:102C30001E68B369074613B93046FFF7C7FF483629
:102C4000B4687368013B04D4B4F90C5075B16834AE
:102C5000F8E733682BB938460421FFF7A1FF30604D
:102C600008B13668ECE70C233B60F8BD4FF6FF7304
:102C7000E3810123A38165662560A5606560256108
:102C80006561A56104F15C002946082200F02EF878
:102C90006563A563A564E5642046F8BDDC3E0000DD
:102CA00070B50E4B0E4DED1AAD1000241E46AC4211
:102CB00004D056F8242090470134F8E700F012FEC3
:102CC000084D094BED1AAD1000241E46AC4204D04D
:102CD00056F8242090470134F8E770BD78000020B2
:102CE000780000207C000020780000200244034689
:102CF000934202D003F8011BFAE7704770B5CD1C70
:102D000025F0030508350C2D38BF0C25002D06468F
:102D10003FDB8D423DD3214B1C6818462146A1B1B3
:102D20000B685B1B0ED40B2B03D90B60CC18CD505A
:102D30001FE08C4202D1626802601AE04B68636057
:102D40000C4616E00C464968E9E7154C23681BB9A8
:102D5000304600F03FF820602946304600F03AF84F
:102D6000431C014615D0C41C24F0030484420AD13C
:102D7000256004F10B00231D20F00700C31A0BD0BF
:102D80005A42E25070BD3046611A00F023F801301B
:102D9000EED10C233360002070BD00BF0001002085
:102DA000FC0000200FB40A4B13B51C6824B1A369C2
:102DB00013B92046FFF70AFF05AB2046A168049A25
:102DC000019300F08BF802B0BDE8104004B07047EA
:102DD0007400002038B5064C0023054608462360E1
:102DE000FFF75AFB431C02D1236803B12B6038BDA7
:102DF0002C0A002010B50C46B1F90E1000F03EFD73
:102E0000002803DB636D0344636510BDA38923F4CD
:102E10008053A38110BD2DE9F0411D468B89DB0550
:102E200007460C46164605D5B1F90E1000220223BE
:102E300000F070FCA389B4F90E1023F48053A38131
:102E4000384632462B46BDE8F04100F025BB10B5B0
:102E50000C46B1F90E1000F05DFC431CA38903D1B0
:102E600023F48053A38110BD43F48053A381606594
:102E700010BDB1F90E1000F08FBB034613F8012B03
:102E8000002AFBD1181A013870479368013B002BC8
:102E900010B5936005DA9469A34208DBCBB20A2B24
:102EA00005D01368581C10601970C8B210BDBDE879
:102EB000104000F09DBAF8B505460E461446D718E6
:102EC000BC4208D0284614F8011B3246FFF7DDFF4C
:102ED000431CF5D100E00020F8BD00002DE9F043CF
:102EE0009DB00D4617460393064618B183690BB98A
:102EF000FFF76CFE734B9D4201D1756808E0724B81
:102F00009D4201D1B56803E0704B9D4208BFF56852
:102F1000AB8918070AD52B6943B1002309932023F5
:102F20008DF8293030238DF82A3038E03046294694
:102F300000F0C4FA0028F0D04FF0FF30BFE0039A51
:102F4000111D12680391002A70DB07920134237867
:102F50002E2B7DD05E4F21783846032200F03AFCBC
:102F600030B1C71B049B4020B84003430493013495
:102F7000217858488DF828100622671C00F02AFC9A
:102F8000002800F08A80544B002B7DD1039B07332F
:102F900023F0070308330393099B434409933B46FB
:102FA0001C4613F8012B1AB9B4EB07090ED002E046
:102FB000252AF5D1F8E7304629463A464B46FFF731
:102FC0007AFF013076D0099B4B4409932378002B7C
:102FD00070D000234FF0FF320493079305920693BD
:102FE0008DF853301A9304F101094C463B4F217878
:102FF0003846052200F0EEFB09F10109049B28B1D7
:10300000C71B0120B84003430493EEE7D90644BF31
:1030100020228DF853201A0744BF2B228DF853200D
:1030200022782A2A8BD0079B214605E0524243F0A2
:1030300002030792049389E70C4601312278303A63
:10304000092A03D80A2000FB0323F5E707937EE74C
:1030500063782A2B0AD1039B1A1D1B680392002B4D
:1030600004F10204B8BF4FF0FF330BE0611C0023F2
:103070000C4601312278303A092A03D80A2000FB95
:103080000323F5E7059365E703AB0093304604A9F6
:103090002A46134BAFF3008007E003AB00933046A2
:1030A00004A92A460E4B00F08FF8B0F1FF3F80468E
:1030B0007FF472AFAB895B063FF53EAF09981DB058
:1030C000BDE8F083783E0000983E0000B83E000066
:1030D000E63E0000EA3E000000000000E03E000086
:1030E000B72E00002DE9F84315461F468A680B6984
:1030F000DDF820809A42A8BF13462B6091F8432048
:1031000006460C460AB101332B602368990602D5A6
:103110002B6802332B60236813F006091DD094F846
:1031200043302268003318BF012392061FD5E118EF
:103130005A1C302081F84300224494F8451082F84C
:103140004310023313E03046394604F119020123DB
:10315000C047013007D009F10109E2682B68D31A92
:103160009945F0DBDBE74FF0FF30BDE8F8833046F0
:10317000394604F14302C0470130F4D023682A687D
:10318000E16803F00603042B08BFC2EB01052369C5
:10319000A2680CBF25EAE57500259A42C4BFC3EBBF
:1031A0000203ED184FF00009A9450ADA3046394606
:1031B00004F11A020123C0470130D4D009F10109FA
:1031C000F2E70020BDE8F8832DE9FF470E7E0C9D55
:1031D0006E2E80460C4691469A4601F1430000F05F
:1031E000A58011D8632E22D009D8002E00F0AF8020
:1031F000582E40F0BF8081F845607B4A4FE0642E36
:103200001ED0692E1CD0B5E0732E00F0A48009D822
:103210006F2E2BD0702E40F0AD800B6843F0200352
:103220000B6038E0752E21D0782E34D0A2E02B68C8
:103230001A1D1B682A6001F1420781F842309DE0A7
:1032400022682B6812F0800F03D01A1D2A601D68B7
:1032500005E05106F9D51A1D2A60B3F90050002D7A
:1032600039DA2D236D4284F8433034E022682B682C
:1032700012F0800F03D01A1D2A601D6804E0520668
:10328000F9D51A1D2A601D88237E574A6F2B14BF5B
:103290000A2308231BE07823544A84F84530236826
:1032A000296813F0800F01F104062E6001D00D682B
:1032B00002E05F06FBD50D88DE0744BF43F0200324
:1032C00023601DB9236823F020032360102300210D
:1032D00084F8431001E0444A0A236668A660002E81
:1032E00003DB216821F00401216005B96EB104F10E
:1032F0004201B5FBF3F603FB16550F46555D01F889
:1033000001593546002EF4D100E00746082B0AD1BA
:103310002368DD0707D5626823699A4203DC3023FE
:1033200007F8013C013FC01B20612CE009682B68B5
:10333000626911F0800F04D0191D29601B681A60A2
:1033400005E04906F8D5191D29601B681A8000237D
:103350002361074617E02B681A1D2A601F6838464C
:10336000FFF78BFD63682061984288BF2361236962
:10337000636005E004F1420784F8426001232361A1
:10338000002384F84330CDF800A04046214603AA2C
:103390004B46FFF7A7FE013002D14FF0FF301FE090
:1033A000404649463A462369D0470130F5D0236864
:1033B0009B0705D4E068039B9842B8BF18460FE00E
:1033C0000025E268039BD31A9D42F3DA4046494642
:1033D00004F119020123D0470130DED00135F0E7B6
:1033E00004B0BDE8F08700BFF13E0000023F0000DE
:1033F00070B50E461446054618B183690BB9FFF740
:10340000E5FB224B9C4201D16C6808E0204B9C42BA
:1034100001D1AC6803E01F4B9C4208BFEC68A36974
:10342000A360A3891A0709D523693BB123692068E2
:10343000C01A63699842F6B20FDB08E028462146BD
:1034400000F03CF80028F1D04FF0FF3070BD284666
:10345000214600F035F90028F6D1A368013BA360AE
:1034600023685A1C22601E7063690130984204D0A0
:10347000A389DB0707D50A2E05D12846214600F08F
:103480001FF90028E0D1304670BD00BF783E000033
:10349000983E0000B83E000038B5074C05460020B5
:1034A0002060084611461A46FFF734F8431C02D143
:1034B000236803B12B6038BD2C0A0020324B70B555
:1034C0001D6806460C4625B1AB6913B92846FFF7BF
:1034D0007DFB2E4B9C4201D16C6808E02C4B9C423A
:1034E00001D1AC6803E02B4B9C4208BFEC68A28979
:1034F00093B2190720D4DD0605D4092342F0400217
:103500003360A2813BE0580712D5616B41B104F1F1
:103510004403994202D0304600F06CF90023636303
:10352000A38923F02403A38100236360236923601C
:10353000A38943F00803A38123694BB9A38903F44A
:103540002073B3F5007F03D03046214600F0F4F835
:10355000A38913F0010205D00022A26062695242E1
:10356000A26103E0990758BF6269A26022694AB963
:1035700003F0800080B230B143F04003A3814FF0EC
:10358000FF3070BD002070BD74000020783E000048
:10359000983E0000B83E000038B5064C00230546B2
:1035A00008462360FEF710FF431C02D1236803B1D5
:1035B0002B6038BD2C0A00208A892DE9F041054690
:1035C00010070C4657D44B68002B02DC0B6C002B09
:1035D00018DDE66AB6B102F48052002392B22F6879
:1035E0002B600AB1626D10E0216A28460123B047C2
:1035F000411C024609D12B683BB11D2B01D0162B73
:1036000046D12F600020BDE8F081A3895B0705D576
:103610006368D21A636B0BB1236CD21AE66A216A13
:1036200028460023B047461CA28905D12B681BB150
:103630001D2B01D0162B19D100236360D1042369FF
:10364000236004D5421C01D12B6803B96065616B0E
:103650002F600029D6D004F14403994202D02846B5
:1036600000F0C8F800206063BDE8F08142F040023D
:10367000A281BDE8F0810E69002EC3D00B680E60F8
:10368000C6EB030893070CBF4B6900238B6012E065
:10369000A38943F04003A3814FF0FF30BDE8F081E0
:1036A000A76A216A284632464346B8470028EFDD1C
:1036B0000644C0EB0808B8F1000FF1DCA2E70000F7
:1036C00038B50B6905460C46DBB118B183690BB9F7
:1036D000FFF77CFA0C4B9C4201D16C6808E00B4B65
:1036E0009C4201D1AC6803E0094B9C4208BFEC68E6
:1036F000B4F90C302BB128462146BDE83840FFF71D
:103700005BBF002038BD00BF783E0000983E00003F
:10371000B83E000038B5074C05460020206008463A
:1037200011461A46FEF77EFE431C02D1236803B100
:103730002B6038BD2C0A0020F0B58B899E0791B014
:1037400005460C4626D4B1F90E10002909DAA389E2
:1037500013F0800F4FF0000714BF40264FF480662F
:103760000DE001AA00F09CF80028F0DB029F07F4AE
:103770007047B7F500514F424F414FF480662846DD
:103780003146FFF7BBFA60B9A3899A051DD443F00F
:103790000203A38104F147032360236101236361D2
:1037A00013E00B4BAB62A389206043F08003A3813D
:1037B000206166614FB12846B4F90E1000F082F81E
:1037C00018B1A38943F00103A38111B0F0BD00BF7C
:1037D000252B000010B5C9B202449042034606D022
:1037E0001C788C4200F10100F7D1184610BD002072
:1037F00010BD000030B500293CD051F8042C0B1F3F
:103800001D49002AB8BF9B180A680C4612B95A60B5
:103810000B6030BD93420DD219685818904203D105
:103820005A581144426819605A60236030BD994269
:1038300003D80A4651680029F9D1146815199D4228
:103840000AD11B682344D0188842136012D108683B
:10385000034413604B680CE002D90C23036030BDB5
:1038600018681C188C4203D10C6849682044186001
:103870005960536030BD00BF0001002038B5074CCF
:10388000054600202060084611461A46FEF7D8FD7E
:10389000431C02D1236803B12B6038BD2C0A0020E1
:1038A00038B5074C00230546084611462360FEF74D
:1038B0009DFD431C02D1236803B12B6038BD00BFBE
:1038C0002C0A002038B5064C002305460846236024
:1038D000FEF79CFD431C02D1236803B12B6038BD69
:1038E0002C0A0020F8B500BFF8BC08BC9E46704703
:1038F000F8B500BFF8BC08BC9E4670470500000044
:103900000000000040420F00050100000000000020
:103910000000000053797374656D20686173206244
:103920006F6F7465640A000053656E64696E67208A
:10393000636F6D6D616E643A20776966695F636D70
:10394000645F736D655F7365745F6F7065726174DA
:10395000696E675F6D6F64652832290A0000000098
:10396000436F6D6D616E6420726573706F6E736509
:103970002072656365697665643A20776966695F78
:103980007273705F736D655F7365745F6F7065727E
:103990006174696E675F6D6F64655F69640A0000DA
:1039A00053656E64696E6720636F6D6D616E643A16
:1039B00020776966695F636D645F736D655F7769C2
:1039C00066695F6F6E0A0000436F6D6D616E642003
:1039D000726573706F6E7365207265636569766575
:1039E000643A20776966695F7273705F736D655FB3
:1039F000776966695F6F6E5F69640A004576656E18
:103A0000742072656365697665643A2077696669D2
:103A10005F6576745F736D655F776966695F69730B
:103A20005F6F6E0A0000000053656E64696E672068
:103A3000636F6D6D616E643A20776966695F636D6F
:103A4000645F74637069705F636F6E6669677572D7
:103A5000650A0000436F6D6D616E6420726573705E
:103A60006F6E73652072656365697665643A207769
:103A70006966695F7273705F74637069705F636FAA
:103A80006E6669677572655F69640A004576656E82
:103A9000742072656365697665643A207769666942
:103AA0005F6576745F74637069705F636F6E66697B
:103AB0006775726174696F6E5F69640A0000000067
:103AC00053656E64696E6720636F6D6D616E643AF5
:103AD00020776966695F636D645F736D655F73749A
:103AE0006172745F61705F6D6F64650A0000000051
:103AF000436F6D6D616E6420726573706F6E736578
:103B00002072656365697665643A20776966695FE6
:103B10007273705F736D655F73746172745F6170EF
:103B20005F6D6F64655F69640A0000004576656ECD
:103B3000742072656365697665643A2077696669A1
:103B40005F6576745F736D655F61705F6D6F6465EF
:103B50005F737461727465645F69640A00000000D9
:103B600053656E64696E6720636F6D6D616E643A54
:103B700020776966695F636D645F68747470735FF2
:103B8000656E61626C650A00436F6D6D616E6420E5
:103B9000726573706F6E73652072656365697665B3
:103BA000643A20776966695F7273705F68747470D5
:103BB000735F656E61626C655F69640A0000000096
:103BC000436C69656E74206A6F696E6564207769FD
:103BD0007468204D4143202530325820253032581A
:103BE00020253032582025303258202530325820B8
:103BF000253032580A000000436C69656E74206CF1
:103C00006566742077697468204D41432025303201
:103C1000582025303258202530325820253032584F
:103C2000202530325820253032580A00556E6B6EF0
:103C30006F776E204576656E740A000048656C6C7F
:103C40006F20576F7264202D205468697320697348
:103C5000205746313231205350492044656D6F0A58
:103C60000000000057463132312044656D6F00007E
:103C70004865617020616E6420737461636B2063BA
:103C80006F6C6C6973696F6E0A00000001010507B3
:103C9000070304020302040605060D0E0E0E0D0DA9
:103CA0000D0D0E0E0E0E0D0D01010507070304028A
:103CB0000302040605060F1010100F0F0F0F10104F
:103CC00010100F0F01010507070304020302040689
:103CD00005061112121211111111121212121111E4
:103CE0000101050707030402030204060506131C6D
:103CF0001C1C131313131C1C1C1C1313000105079D
:103D0000060203010302040604051D1E1E1E1D1DDE
:103D10001D1D1E1E1E1E1D1D00010507060203019E
:103D20000302040604051F2020201F1F1F1F202040
:103D300020201F1F010105070703040203020406D8
:103D40000506212222222121212122222222212193
:103D50000705020103060423232323232323070546
:103D60000201030604242424242424240705020138
:103D7000030604252525252525250705020103061B
:103D800004262626262626260001070206272727A0
:103D900027270000000000000000131211100F0E72
:103DA0000D0C000000002125242600000000001159
:103DB00080020000000002060000200039000F0011
:103DC0000000401500204004001000223F000600C3
:103DD0005B044F0466046D047D0407007F046F04D8
:103DE00000000000000A000080200000FFFF7704B0
:103DF000790A3900B020790071007D04760406004C
:103E00000E00700A3800B602B6083F0073043F087F
:103E1000730C6D0401113E0030223628802A6E0496
:103E20000922390080080F00010008000001581025
:103E30007C0458005E04582071040C0C74040400C7
:103E40000E00700C3800541454045C0473046704AE
:103E50005004080C78001C0010201428802A0C083C
:103E60004820000001000000030040000C0000009A
:103E70000000000000000000000000000000000042
:103E80000000000000000000000000000000000032
:103E90000000000000000000000000000000000022
:103EA0000000000000000000000000000000000012
:103EB0000000000000000000000000000000000002
:103EC00000000000000000000000000000000000F2
:103ED000000000000000000043000000140000206B
:103EE000232D302B2000686C4C00656667454647E3
:103EF0000030313233343536373839414243444566
:103F000046003031323334353637383961626364D4
:083F10006566000000000000DE
:083F18001CC2FF7F0100000044
:103F20004765636B6F2B574631323100006CDC0202
:103F30000080000000000000783E0000983E000075
:103F4000B83E00000000000000000000000000007B
:103F500000000000D83E000000000000000000004B
:103F60000000000000000000000000000000000051
:103F70000000000000000000000000000000000041
:103F80000000000000000000000000000000000031
:103F9000000000001400002005010000E100000006
:043FA000000000001D
:04000003000028A52C
:00000001FF
