:1000000000800020711C00009D1C00009D1C000051
:100010009D1C00009D1C00009D1C00009D1C0000FC
:100020009D1C00009D1C00009D1C00009D1C0000EC
:100030009D1C00009D1C00009D1C00009D1C0000DC
:100040009D1C00009D1A00009D1C00009D1C0000CE
:100050009D1C00009D1C00009D1C00009D1C0000BC
:100060009D1C00009D1C00009D1C0000C51A000086
:100070009D1C00009D1C00009D1C00009D1C00009C
:100080009D1C00009D1C00009D1C00009D1C00008C
:100090009D1C00009D1C00009D1C00009D1C00007C
:1000A0009D1C00009D1C00009D1C00009D1C00006C
:1000B0009D1C00009D1C00009D1C00009D1C00005C
:1000C0009D1C00009D1C00009D1C00009D1C00004C
:1000D0009D1C00009D1C00009D1C00009D1C00003C
:1000E00010B5054C237833B9044B13B10448AFF372
:1000F00000800123237010BD90000020000000004C
:100100006C31000008B5064B1BB106480649AFF339
:1001100000800648036813B1054B03B1984708BD3A
:10012000000000006C310000940000208C000020D2
:1001300000000000154B002B08BF134B9D46A3F594
:10014000803A00218B460F461348144A121A01F0D8
:10015000B3FF0F4B002B00D098470E4B002B00D065
:1001600098470020002104000D000D48002802D00F
:100170000C48AFF3008001F079FF2000290000F067
:1001800085FB01F073FE00BF000008000080002026
:10019000000000000000000090000020300A002055
:1001A000000000000000000080B500AF00F006F87D
:1001B00000F018F800F056F880BD00BF80B500AF21
:1001C0005120052101F018F80448012100F0F4FD48
:1001D0000348012100F0F0FD80BD00BF00120200C5
:1001E00000D20200B0B588B000AF1C4B07F1080484
:1001F0001D460FCD0FC495E8030084E803004FF4BB
:10020000E1333B6105233B7501237B750123BB75FE
:100210004FF400733B830023BB760023FB7600235F
:100220003B7707F108030E48194601F04BFA00230B
:100230003B7100237B710023BB710023FB71002302
:100240007B710023BB710023FB713B1D04481946E1
:1002500001F09CFA2037BD46B0BD00BFC82C00009D
:1002600000C4004080B400AF2A4B2A4AD26C22F06E
:100270000F0242F00202DA64264B264A126F22F085
:100280000F0242F004021A67224B224A126F22F038
:10029000F00242F010021A671E4B1E4A126F22F43F
:1002A000706242F480621A671A4B1A4A126F22F483
:1002B000704242F480421A67164B164AD2F89420D4
:1002C00022F4706242F48062C3F89420114B114A08
:1002D000D2F8942022F4704242F48042C3F8942071
:1002E0000D4B0D4A926A22F4E06242F480729A62E7
:1002F0000A4B0A4A526D22F4E06242F480725A6557
:10030000064B064A526D42F00F025A65BD465DF833
:10031000047B7047006000400060084000C400405B
:1003200080B400AFBD465DF8047B704780B483B0F5
:1003300000AF0346FB71054B1B685A1C034B1A6048
:100340000C37BD465DF8047B704700BFAC00002051
:1003500090B585B000AFB9607B600346FB73134670
:10036000BB8112E0194B1B785A1CD1B2174A11708D
:100370001C46BB685A1CBA601B781548194601F028
:100380008DFA03461A46134B1A55FB7B5A1EFA7315
:10039000002BE7D112E00D4B1B785A1CD1B20B4A4F
:1003A00011701C467B685A1C7A601B7808481946F5
:1003B00001F074FA03461A46064B1A55BB895A1EB9
:1003C000BA81002BE7D11437BD4690BDB4000020A0
:1003D00000C400402401002080B500AF0A4B1A7809
:1003E0000A4B1B789A4208D0084B1B785A1CD1B292
:1003F000064A1170064AD35C04E00648002101F069
:100400004DFA0346184680BDB4000020B500002018
:100410002401002000C4004090B585B000AF786092
:10042000FFF7DAFF03461A467B681A707B681B7871
:10043000002B02D14FF0FF3313E07B6801337B6068
:100440000023FB6009E07C68631C7B60FFF7C4FF4E
:1004500003462370FB680133FB60FB68022BF2DD6F
:10046000002318461437BD4690BD00BF90B585B037
:1004700000AF78600023FB6009E07C68631C7B6050
:10048000FFF7AAFF03462370FB680133FB60FA689D
:10049000074B1B6803F007031902054B1B6803F4A5
:1004A0007F431B0A0B439A42E7D31437BD4690BDE6
:1004B00024020020B0B586B004AF9D4B3B609D4840
:1004C000FFF7AAFF0346002B00D0ABE13868FFF727
:1004D000CDFF984B1B6823F47F4323F00703964A14
:1004E000934200F08181944A934218D8934A9342F0
:1004F00060D0924A934206D8914A93422AD0914AB8
:10050000934253D085E1904A934277D08F4A9342E9
:1005100000F0C4808E4A934200F0D88079E18D4A81
:10052000934200F09E808B4A934206D88A4A9342B7
:1005300060D08A4A934228D06BE1894A934200F006
:10054000C980884A934200F0DC80874A934200F0D9
:1005500084805EE1854B1A68854B1A60854801F0FE
:1005600007FE854B00221A70844801F001FE844B7F
:1005700002221A71824B834A1A60834B1C68052041
:100580007F4900220023A0474CE1804801F0F0FDA4
:100590007F4801F0EDFD7A4B6A4A1A607A4B1C687D
:1005A0000420774900220023A04736E1794801F072
:1005B000DFFD32E1784801F0DBFD784801F0D8FD3D
:1005C000774B1A686E4B5A60764B1A686C4B9A6080
:1005D000754B1A686A4BDA60694B00221A74684BD3
:1005E000724A1A60684B1C6811206549002200237A
:1005F000A04712E16E4801F0BBFD0EE16D4801F02D
:10060000B7FD5D4B1B7883F00103DBB2002B23D0D9
:10061000694801F0ADFD5A4B0B221A71584B00226C
:100620005A71574B0B229A71554B9B7903331A0A17
:10063000534B9B7903331B029BB21A434A4B134320
:100640004F4A1360504B1C684D4B9B7907204C4917
:100650001A465A4BA047E0E0DFE0594801F088FD18
:10066000DBE0584801F084FD434B01221A705648E4
:1006700001F07EFD424B00221A71414B01225A715A
:100680003F4B00229A713E4B504A1A603E4B1C6809
:1006900007203B4900220023A047BEE04C4801F060
:1006A00067FD4C4801F064FD354B41F690729A802D
:1006B000334BFF229A71324B474A1A60324B1C6807
:1006C00007202F4900220023A047A6E0434801F05D
:1006D0004FFDA2E0174B1B791946164B5B791A4662
:1006E000144B9B791348C07905461248007A04469A
:1006F0001048407A009501940290394801F038FD85
:100700008BE00C4B1B7919460A4B5B791A46094B57
:100710009B790848C07905460648007A0446054892
:10072000407A0095019402902E4801F021FD74E07A
:100730002802002024020020880005018800030010
:100740008800010008000300880004000800090078
:10075000080004008800030A080004040800030AD3
:100760008800030D8800030E0800030BAC00002076
:10077000B0000020E02C0000B6000020F42C0000A7
:10078000100100200801030A040100202C2D0000A4
:100790006C2D0000942D0000C82D0000F42D0000E9
:1007A000000000200400002008000020080D0404C0
:1007B000202E0000582E00008C2E00000C0000207F
:1007C000BC2E0000F82E00002C2F000008030900AA
:1007D000542F00008C2F000008030400C02F0000DD
:1007E000003000003830000000237B600AE00F4A30
:1007F0007B6813449B790E48194601F0B9FC7B686D
:1008000001337B60094B5B791A467B689A42EEDCC8
:1008100003E0084801F0ACFC00BF074B1B685A1C02
:10082000054B1A600837BD46B0BD00BF240200204A
:100830006C30000070300000B000002080B582B045
:1008400002AFFFF76DFDFFF7AFFC0C4B0B4A1268D0
:1008500042F480321A6001F0CBF80020084901F020
:10086000D7F801230093022000210122002300F089
:1008700093FE044B044A1A60BD4680BD00C400408C
:100880002D030000040100205103000098B500AFC3
:10089000FFF7D4FF00F06CF80F4801F069FC0F4B34
:1008A00000221A710D4B0E4A1A600E4B1C6805206F
:1008B0000A4900220023A0470B4B1A680B4B1B6808
:1008C0009A4205D80A4B1A780A4B1B789A4202D0F2
:1008D000FFF7F0FDF0E7EFE78030000010010020A7
:1008E0000801010104010020AC000020B00000203C
:1008F000B4000020B500002080B483B000AF786061
:100900004FF06043D3F8803E03F00103002B12D078
:100910004FF06043D3F8003E03F00103002B0AD0F0
:1009200000BF4FF060431B68002BFAD04FF06043CC
:100930007A68D2B21A707B6818460C37BD465DF8EB
:10094000047B704780B582B000AF0346FB71FB7932
:100950001846FFF7D1FF034618460837BD4680BD4D
:1009600080B400AF00231846BD465DF8047B704795
:1009700080B400AF334B334A526C42F400525A6495
:10098000314B314AD2F8202142F00402C3F8202131
:100990002D4B2D4AD2F8202122F44072C3F8202199
:1009A000294B294AD2F8B82022F47062C3F8B82043
:1009B000254B254AD2F8B82042F48062C3F8B8200B
:1009C000204B10221A6200BF1E4BDB6A03F020038B
:1009D000002BF9D01D4B1D4AD26842F08072DA60BC
:1009E0004FF060431A4AC3F8B02F4FF06043002223
:1009F000C3F8002E4FF060430022C3F8802E154B41
:100A00000222C3F8F020134B0F221A614FF060430B
:100A10000022C3F8402E104B104A1A604FF060437A
:100A20000F4AC3F8802E0B4B4FF48072C3F8042397
:100A30004FF060430122C3F8002EBD465DF8047BF1
:100A4000704700BF00800C4000600040F0ED00E007
:100A500055CEACC5000004E0001000E0FE030040ED
:100A60000D00010080B487B000AFF860B9607A6013
:100A7000FB6803F10473DA00BB6813449B007B61DD
:100A80007B697A681A601C37BD465DF8047B704745
:100A900080B485B000AF7860284BDB6B002B0CBFB7
:100AA00000230123BB72254B41F67132DA63234BDD
:100AB0005B6803F00703FB60FB68012B01D9042B83
:100AC00002D10023FB7202E00123FB7200BF7A68AF
:100AD0001B4B9A4207D9FB7A002B01D0052300E07B
:100AE0000423FB6016E07A68154B9A420BD87A68AB
:100AF000144B9A4207D9FB7A002B01D0032300E064
:100B00000123FB6006E0FB7A002B01D0022300E00A
:100B10000023FB60094B094A526822F00701FA687A
:100B20000A435A60BB7A002B02D0044B0022DA63DE
:100B30001437BD465DF8047B704700BF00000C40D1
:100B40000048E8010024F40080B582B000AF044BF7
:100B50007B607868FFF79CFF0837BD4680BD00BF0B
:100B6000006CDC0280B487B000AF78607B68002B3B
:100B700004D07B68B3F5004F00D800BF7B683B61B1
:100B80003B69B3FA83F3FB60FB68DBB2C3F11F037D
:100B90007B617B6918461C37BD465DF8047B704756
:100BA00080B582B000AF104800F074FA0346FB70C5
:100BB000FB78032B07D0082B09D0022B0BD101F0B7
:100BC00049F978600AE001F031F9786006E001F057
:100BD00099F8786002E000237B6000BF7B681846CC
:100BE0000837BD4680BD00BF05231C0080B483B01C
:100BF00000AF1A4B5B6903F4E063B3F5007F14D0D8
:100C0000B3F5007F05D8002B15D0B3F5807F0FD04A
:100C10001AE0B3F5C06F14D0B3F5E06F0ED0B3F5A2
:100C2000407F11D10E4B7B6011E00E4B7B600EE0DC
:100C30000D4B7B600BE00D4B7B6008E00C4B7B6049
:100C400005E00C4B7B6002E000237B6000BF7B680B
:100C500018460C37BD465DF8047B704700800C4099
:100C600040420F00C0CF6A00C0D8A700809FD500C7
:100C7000406F4001003FAB0180B582B000AF124829
:100C800000F008FA0346FB70FB78072B0FD0082B07
:100C900011D101F037F878600C4B1B6803F4E03396
:100CA0009B0B01337A68B2FBF3F37B6006E0FFF73E
:100CB0009DFF786002E000237B6000BF7B681846E0
:100CC0000837BD4680BD00BF0400180000800C40FE
:100CD00080B584B000AF78607B68002B02D07B6861
:100CE000012B00D100BF264B9A6A7B685B0022FA79
:100CF00003F303F00303032B3AD801A252F823F0C5
:100D0000510D0000110D0000190D0000210D000013
:100D100001F08CF8F8602EE001F09CF8F8602AE011
:100D2000174B5B6803F48073002B05D1144B1B68D1
:100D300003F08043002B05D000F0C0FF03469B0862
:100D4000FB6018E000F0BAFF03465B08FB6012E0AE
:100D50000B4B9A6A7B6804339B0022FA03F3002B47
:100D600003D001F06DF8F86005E00023FB6002E0BD
:100D70000023FB6000BFFB6818461037BD4680BDEE
:100D800000800C4080B483B000AF7860094B5B6D8D
:100D900003F00103002B00D006E000BF054B1A6DE5
:100DA0007B681340002BF9D10C37BD465DF8047BFE
:100DB000704700BF00800C4080B586B000AF7860FF
:100DC0000B46FB7000233B617B681B0A03F00F039B
:100DD000013B052B48D801A252F823F0F50D000085
:100DE000FB0D0000010E00002B0E0000350E000070
:100DF0003F0E00001E4B7B6124E01E4B7B6121E017
:100E00001D4B7B611D4800F047F802461C4B9A427F
:100E10000AD91C481E210122FFF724FE1A48082186
:100E20000122FFF71FFE0DE00CE0184B7B61012350
:100E30003B6107E0164B7B6110233B6102E0154BE1
:100E40007B6100BF7B681B0B03F01F03FB603B69EA
:100E5000002B02D03869FFF795FFFB787869F968B5
:100E60001A46FFF7FFFD00E000BF1837BD4680BD02
:100E700008800C4044800C4040800C40200004005E
:100E800000366E0100800C4004800C4058800C40FD
:100E900060800C4078800C4090B585B000AF7860E1
:100EA0007B6803F47813B3F5602F00F09980B3F5F5
:100EB000602F18D8B3F5C02F5ED0B3F5C02F08D877
:100EC000B3F5003F3ED0B3F5802F51D0002B2BD08F
:100ED000D6E0B3F5202F62D0B3F5402F6DD0B3F537
:100EE000002F4ED0CCE0B3F5B01F00F0AF80B3F5CB
:100EF000B01F0CD8B3F5901F00F09680B3F5A01F7B
:100F000000F09780B3F5801F00F08180B8E0B3F562
:100F1000D01F00F0AD80B3F5E01F00F0AD80B3F559
:100F2000C01F00F0A180ABE000F0ECFEF860584B71
:100F30001B6803F4E0339B0B0133FA68B2FBF3F355
:100F4000FB60A0E000F0DEFEF860514B1B6803F48C
:100F5000E0339B0B0133FA68B2FBF3F3FB604C4BBD
:100F60009B6803F00F03FA6822FA03F3FB608AE040
:100F700000F0A4FEF86086E00020FFF7A9FEF8600C
:100F800081E00020FFF7A4FEF860414B9B6E03F068
:100F9000F0031B09FA6822FA03F3FB6073E00020F8
:100FA000FFF796FEF8603A4B9B6E03F470631B0AE2
:100FB000FA6822FA03F3FB6065E00020FFF788FE81
:100FC000F860334B9B6E03F440531C0B1020FFF76B
:100FD000C9FD03462344FA6822FA03F3FB6052E09A
:100FE0000020FFF775FEF860294B9B6E03F4405319
:100FF0001B0BFA6822FA03F3FB60254BDB6F03F04F
:1010000007030133FA68B2FBF3F3FB603BE0002017
:10101000FFF75EFEF8601E4B9B6E03F00303FA6859
:1010200022FA03F3FB602EE00120FFF751FEF86087
:1010300029E00120FFF74CFEF860154B1B6F03F011
:101040000303FA6822FA03F3FB601CE00120FFF7B8
:101050003FFEF8600E4B1B6F03F030031B09FA686C
:1010600022FA03F3FB600EE0FFF706FEF8600AE0E9
:10107000FFF7BCFDF86006E0FFF792FDF86002E0C4
:101080000023FB6000BFFB6818461437BD4690BDC7
:1010900000800C4080B487B000AF78600123FB75FE
:1010A0004FF470533B617B6803F00F03FB60FB68F8
:1010B000013B042B00F2938001A252F823F000BF01
:1010C000D51000000B110000471100008311000033
:1010D000A9110000474BDA6A3B691340B3F5805F02
:1010E00009D0B3F5005F03D0B3F5006F06D008E078
:1010F0000223FB7508E00323FB7505E00423FB7561
:1011000002E00523FB7500BF6CE03A4B9B6A03F0DD
:101110000303022B06D0032B07D0012B08D1032396
:10112000FB750FE00223FB750CE00623FB7509E05D
:10113000304B9B6A03F48033002B02D00923FB75EC
:1011400000E000BF4EE02B4B9B6A03F00C03082B22
:1011500006D00C2B07D0042B08D10323FB750FE01E
:101160000223FB750CE00623FB7509E0214B9B6A0B
:1011700003F48013002B02D00923FB7500E000BFAD
:1011800030E00723FB751B4B1B6803F08053002BDB
:1011900003D0B3F1805F03D024E00723FB7502E0A6
:1011A0000823FB7500BF1DE0124BDB6A03F46033BC
:1011B000B3F5803F06D0B3F5003F06D0B3F5004F3E
:1011C00006D008E00223FB7508E00323FB7505E069
:1011D0000823FB7502E00123FB7500BF02E000233A
:1011E000FB7500BFFB7D18461C37BD465DF8047BD0
:1011F000704700BF00800C4080B588B000AF7860B9
:101200000B46FB700323FB610323FB7600237B610A
:101210007B6803F00F03FB60FB68013B042B00F2CB
:10122000268101A252F823F03D12000005130000B0
:1012300005130000DD13000007140000FB78023BDB
:10124000072B00F2168101A252F823F06D12000064
:101250007712000081120000D11200007314000008
:101260007314000073140000DB1200000423FB6100
:101270000023FB7632E00323FB610123FB762DE0A4
:101280000223FB610223FB7600F0B4FD02467C4B97
:101290009A4213D97B4A7B4B1B6843F0804343F04F
:1012A00060031360774B1B6C03F01003002B0ED010
:1012B000754808210122FFF7D5FB0FE0714B714AF9
:1012C000126822F0600242F020021A6006E005E097
:1012D0000123FB610323FB7600E000BFFB7E184681
:1012E0000121012200F0D4F8FFF72EFC654BFA69CA
:1012F0005A6200F02DF900F0E1FCB860B868FFF721
:10130000C7FBB9E0FB78013B082B00F2B48001A2D7
:1013100052F823F0391300003F1300004F13000070
:1013200077140000771400005F13000077140000AA
:10133000771400009313000000233B612EE000208F
:101340000121012200F0A4F802233B6126E00120E4
:101350000121012200F09CF801233B611EE04B4873
:1013600004210122FFF77EFB03233B6100F0A6FC72
:10137000B860BA68424B9A420AD942481E210122FB
:10138000FFF770FB404808210122FFF76BFB05E0E7
:1013900004E000233B6101237B6100BFFB68022B5B
:1013A0000DD1384A374B9B6A23F4803323F0030373
:1013B000396919437B691B040B4393625CE0314A32
:1013C000304B9B6A23F4801323F00C0339698900A6
:1013D00019437B691B050B4393624DE0FB78072B98
:1013E00002D0082B07D047E0264B264A126822F08D
:1013F00080521A6006E0234B224A126842F0805263
:101400001A6000BF38E0FB78032B14D0082B22D0E1
:10141000022B00D030E000200121012200F038F83A
:10142000184B40225A6200BF164BDB6A03F480332C
:10143000002BF9D01AE001200121012200F028F848
:10144000104B60225A6200BF0E4BDB6A03F400337C
:10145000002BF9D00AE00B4B20225A6200BF094B47
:10146000DB6A03F40043002BF9D000BF04E000BFA7
:1014700002E000BF00E000BF2037BD4680BD00BFD6
:1014800000366E0100800C4004800C4040800C400F
:1014900080B586B000AF13460246FA710A46BA71AB
:1014A0007B71FB79052B4CD801A252F823F000BFC9
:1014B00001150000F3140000D7140000C914000047
:1014C000E51400004315000001233B610223FB608B
:1014D00002237B611EE004233B610823FB60082399
:1014E0007B6117E010233B612023FB6020237B619D
:1014F00010E040233B618023FB6080237B6109E097
:101500004FF480733B614FF40073FB604FF4007342
:101510007B6100BFBB79002B0DD00C4B3A691A627E
:101520007B79002B0AD000BF084BDA6A7B69134035
:10153000002BF9D002E0054BFA681A6200F008F8B7
:1015400000E000BF1837BD4680BD00BF00800C40E2
:1015500080B400AF034BDA6A034B1A60BD465DF8F6
:10156000047B704700800C40B800002080B487B036
:1015700000AFF860B9607A60FB6803F10473DA00C9
:10158000BB6813449B007B617B697A681A601C37D7
:10159000BD465DF8047B704780B584B000AF39600C
:1015A0000146F971BA717B71FB79052B03D83B6851
:1015B0000F2B00D800BF3B68072B13D8224B224AC1
:1015C000D2F800113A6892000F2000FA02F2D243DA
:1015D0001140F8793A68920000FA02F20A43C3F81F
:1015E000002115E03B68083BFB60174B164AD2F818
:1015F0000411FA6892000F2000FA02F2D24311405F
:10160000F879FA68920000FA02F20A43C3F804215A
:10161000BB790E4839681A46FFF7A8FF7B790C485A
:1016200039681A46FFF7A2FF074B3A68012101FA11
:1016300002F2C3F81C213B7E064839681A46FFF7C0
:1016400095FF1037BD4680BD006000400861004036
:101650000C6100401061004080B586B000AFF860BA
:10166000B9607A60BB68002B03D11448FFF714FC03
:10167000B860BB685B007B617A687B691344013B9F
:101680007B617A697B68B2FBF3F37B617B69043B26
:101690007B617B699B017B617B69C0337B617B697B
:1016A00023F0FF037B617A69054B13407B61FB6884
:1016B0007A695A611837BD4680BD00BF10810200AB
:1016C000C0FF1F0080B582B000AF786039607A68D3
:1016D0002B4B9A4207D07A682A4B9A4203D07A68F9
:1016E000294B9A4200D100BF786800F07FF87B68F0
:1016F0001A683B681B8A43F001039BB219463B689A
:101700009B7B002B02D04FF4806300E000230B434F
:101710001A437B681A607B6819683B689B7C002BC6
:1017200001D0102200E000223B681B7D002B02D07C
:101730004FF0005300E00023134341EA03027B68AB
:101740001A603B681B7B43F480527B685A603B689D
:101750005A683B689B68786811461A46FFF77CFF19
:101760003B685B7B002B02D07B681022DA603B6811
:101770001B781A467B68DA600837BD4680BD00BF1B
:1017800000C0004000C4004000C8004080B485B0E4
:1017900000AF786039607B689B6823F07703FB605B
:1017A0003B681B78002B03D0FB6843F04003FB60D1
:1017B0003B689B78002B03D0FB6843F02003FB6061
:1017C0003B685B78002B03D0FB6843F01003FB60A1
:1017D0003B68DB78FA681343FB607B68FA689A60C1
:1017E0001437BD465DF8047B704700BF80B483B0FA
:1017F00000AF78607A68244B9A420FD07A68234B06
:101800009A420BD07A68224B9A4207D07A68214BD1
:101810009A4203D07A68204B9A4200D100BF7B687D
:1018200040F6AA62DA607B6800221A607B6841F2A7
:1018300005025A607B6800229A607B6800225A6128
:101840007B680022DA647B6841F6F9729A647B68EF
:1018500000225A657A680C4B9A4202D17B680022BA
:101860001A657B6800229A657A68084B9A4203D011
:101870007A68074B9A4202D17B680022DA650C37FE
:10188000BD465DF8047B704700C0004000C40040C6
:1018900000C8004000E0004000E4004080B483B095
:1018A00000AF78600B46FB7000BF7B681B6903F0DC
:1018B0004003002BF9D0FA787B685A6300BF7B683D
:1018C0001B6903F02003002BF9D07B68DB69DBB2D6
:1018D00018460C37BD465DF8047B704780B483B072
:1018E00000AF0346FB71084B97F907205209F979BD
:1018F00001F01F01012000FA01F143F822100C371A
:10190000BD465DF8047B704700E100E080B483B021
:1019100000AF0346FB71094B97F907205209F9798B
:1019200001F01F01012000FA01F1603243F822109A
:101930000C37BD465DF8047B704700BF00E100E056
:1019400080B483B000AF7860044B7A68C3F81C2180
:101950000C37BD465DF8047B704700BF0060004057
:1019600080B483B000AF074BD3F810317B60054BD8
:10197000D3F814217B68134018460C37BD465DF838
:10198000047B70470060004080B400AF72B6084B23
:101990001B68B3F1FF3F04D0054B1B685A1C044B76
:1019A0001A60034B1B681846BD465DF8047B704700
:1019B000BC00002080B483B000AF0C4B1B68002B30
:1019C0000DD00A4B1B685A1E084B1A60074B1B6848
:1019D0007B607B68002B00D162B67B6800E000234F
:1019E00018460C37BD465DF8047B7047BC000020EC
:1019F00080B500AF0B20FFF789FF0B20FFF76EFFCC
:101A00000120FFF783FF0120FFF768FF80BD00BFC3
:101A100080B582B000AF03463960FB71FFF7B4FFB9
:101A2000FA79044B396843F82210FFF7C3FF0837EF
:101A3000BD4680BDC000002080B588B000AF786092
:101A400023E07B687B617B6993FAA3F33B613B698D
:101A5000FB60FB68B3FA83F3BB60BB68DBB2FB617E
:101A6000FB69012202FA03F3DB437A6813407B60CF
:101A7000094BFA6953F82230BB61BB69002B04D0D3
:101A8000FB69DAB2BB69104698477B68002BD8D156
:101A90002037BD4680BD00BFC000002080B582B0A9
:101AA00000AFFFF75DFF024645F2555313407B60E0
:101AB0007868FFF745FF7868FFF7BEFF0837BD4637
:101AC00080BD00BF80B582B000AFFFF749FF02467E
:101AD0004AF6AA2313407B607868FFF731FF7868E5
:101AE000FFF7AAFF0837BD4680BD00BF80B483B0B2
:101AF00000AF7860002318460C37BD465DF8047BC4
:101B0000704700BF80B483B000AF7860FEE700BFCD
:101B100080B483B000AF786039603B684FF4005206
:101B20005A60002318460C37BD465DF8047B7047A9
:101B300080B483B000AF7860012318460C37BD46EF
:101B40005DF8047B704700BF80B485B000AFF860DB
:101B5000B9607A60002318461437BD465DF8047BEF
:101B6000704700BF80B586B000AFF860B9607A609A
:101B700000237B6111E0FEF7F3FE38613B69B3F1AE
:101B8000FF3F09D0BB685A1CBA603A69D2B21A70DA
:101B90007B6901337B6100E004E07B685A1E7A6058
:101BA000002BE8D17B69002B02DC4FF0FF3300E013
:101BB0007B6918461837BD4680BD00BF90B585B01B
:101BC00000AF7860184B1B68002B02D1164B174AE8
:101BD0001A60154B1B68FB60134B1A687B681A442C
:101BE000EFF308831C4623469A4212D9104B1B6818
:101BF0009B68184600F04EF904460E4800F023FB9F
:101C0000034620460B491A4600F016F8012000F062
:101C10002DF9054B1A687B681A44034B1A60FB6860
:101C200018461437BD4690BD00010020300A002040
:101C300080000020B430000080B586B000AFF860AE
:101C4000B9607A6000237B6109E0BB685A1CBA6006
:101C50001B781846FEF776FE7B6901337B617A6953
:101C60007B689A42F1DB7B6818461837BD4680BD19
:101C7000064880470649074A074B9A42BEBF51F8BB
:101C8000040B42F8040BF8E7FEF754FA0D1E0000AF
:101C9000783100000000002090000020FEE700BF27
:101CA00080B400AF044BDB6C1B0EDBB21846BD46A4
:101CB0005DF8047B704700BFB081E00F80B582B053
:101CC00000AF00F01FF878600C4B1B6803F4E033A2
:101CD0009B0B01337A68B2FBF3F37B60074B5B68C5
:101CE00003F00F037A6822FA03F37B60044B7A68EF
:101CF0001A607B6818460837BD4680BD00800C40DE
:101D0000280A002080B582B000AF2F4BDB6A03F4B5
:101D10007053B3F5805F0AD0B3F5005F03D0B3F51D
:101D2000006F08D00BE0294B1B687B6047E04FF445
:101D300000437B6043E0264B1B687B603FE0224B07
:101D4000DB6803F4E063B3F5007F1BD0B3F5007FDD
:101D500005D8002B24D0B3F5807F16D02BE0B3F547
:101D6000806F09D0B3F5A06F03D0B3F5407F06D0E4
:101D700021E0184B7B6021E0174B7B601EE0174B86
:101D80007B601BE0164B7B6018E0FFF789FF034682
:101D9000122B02D9134B7B6010E0134B7B600DE0DC
:101DA000FFF77EFF0346122B02D9104B7B6005E044
:101DB0000F4B7B6002E000237B6000BF00BF7B68AD
:101DC00018460837BD4680BD00800C401C0000202E
:101DD00018000020003FAB01406F4001809FD500FC
:101DE000C0D8A70040B56400C0CF6A00804F120081
:101DF00040420F0080B400AF034B1B681846BD463D
:101E00005DF8047B704700BF1800002080B400AF6D
:101E1000054B054AD2F8882042F47002C3F88820A6
:101E2000BD465DF8047B704700ED00E080B400AF74
:101E30004FF400431846BD465DF8047B704700BF71
:101E400080B400AF4FF47A731846BD465DF8047B4A
:101E5000704700BF80B400AF034B1B681846BD46F7
:101E60005DF8047B704700BF1C00002008B5074BDD
:101E7000044613B10021AFF30080054B1868836A54
:101E800003B198472046FFF73DFE00BF0000000069
:101E900034310000124B70B51D6804461E4625B152
:101EA000AA6912B9284600F077F80E4B9C4201D17E
:101EB0006C6808E00C4B9C4201D1AC6803E00B4B12
:101EC0009C4208BFEC68B4F90C3013B1B4F90E00B1
:101ED00070BD336809221A604FF0FF3070BD00BF3B
:101EE00080000020D0300000F030000010310000F1
:101EF000F8B5074600F1480494B1A5686668013E4C
:101F00000CD4AB89012B07D9B5F90E30013303D0BE
:101F10003846294600F0BAFD6835F0E72468EBE75B
:101F2000F8BD0000002310B50446036043608360E1
:101F300081814366C28103614361836119465C30DC
:101F4000082200F0B9F8054B6362054BA362054B0C
:101F5000E362054B2462236310BD00BFC121000072
:101F6000E32100001B2200003F22000070B54B1E41
:101F700068255D430E4605F1740100F0A5F804469E
:101F800040B1002180E842000C30A06005F16802F9
:101F900000F092F8204670BD836910B5044633BB4B
:101FA0008364C3640365124B124A1B6882629842C1
:101FB00004BF0123836100F01FF86060204600F039
:101FC0001BF8A060204600F017F80421E060002212
:101FD0006068FFF7A7FFA06809210122FFF7A2FFB1
:101FE000E06812210222FFF79DFF0123A36110BDCB
:101FF00034310000F11E0000F8B51B4B1E68B369B8
:10200000074613B93046FFF7C7FF4836B468736810
:10201000013B04D4B4F90C5075B16834F8E7336867
:102020002BB938460421FFF7A1FF306008B13668AC
:10203000ECE70C233B60F8BD4FF6FF73E38101230F
:10204000A38165662560A560656025616561A56100
:1020500004F15C002946082200F02EF86563A563B0
:10206000A564E5642046F8BD3431000070B50E4B20
:102070000E4DED1AAD1000241E46AC4204D056F8A9
:10208000242090470134F8E700F012FE084D094B78
:10209000ED1AAD1000241E46AC4204D056F82420A0
:1020A00090470134F8E770BD8400002084000020D0
:1020B000880000208400002002440346934202D09E
:1020C00003F8011BFAE7704770B5CD1C25F0030536
:1020D00008350C2D38BF0C25002D06463FDB8D4200
:1020E0003DD3214B1C6818462146A1B10B685B1BF0
:1020F0000ED40B2B03D90B60CC18CD501FE08C42B3
:1021000002D1626802601AE04B6863600C4616E018
:102110000C464968E9E7154C23681BB9304600F0C6
:102120003FF820602946304600F03AF8431C01464B
:1021300015D0C41C24F0030484420AD1256004F1A4
:102140000B00231D20F00700C31A0BD05A42E250A7
:1021500070BD3046611A00F023F80130EED10C2337
:102160003360002070BD00BF0C010020080100207A
:102170000FB40A4B13B51C6824B1A36913B92046E8
:10218000FFF70AFF05AB2046A168049A019300F00F
:102190008BF802B0BDE8104004B07047800000200A
:1021A00038B5064C0023054608462360FFF706FDB8
:1021B000431C02D1236803B12B6038BD2C0A0020D8
:1021C00010B50C46B1F90E1000F03EFD002803DBFF
:1021D000636D0344636510BDA38923F48053A38119
:1021E00010BD2DE9F0411D468B89DB0507460C46E5
:1021F000164605D5B1F90E100022022300F070FC3E
:10220000A389B4F90E1023F48053A38138463246D3
:102210002B46BDE8F04100F025BB10B50C46B1F9E6
:102220000E1000F05DFC431CA38903D123F48053FE
:10223000A38110BD43F48053A381606510BDB1F943
:102240000E1000F08FBB034613F8012B002AFBD1C0
:10225000181A013870479368013B002B10B5936042
:1022600005DA9469A34208DBCBB20A2B05D01368C8
:10227000581C10601970C8B210BDBDE8104000F0C5
:102280009DBAF8B505460E461446D718BC4208D08C
:10229000284614F8011B3246FFF7DDFF431CF5D139
:1022A00000E00020F8BD00002DE9F0439DB00D4690
:1022B00017460393064618B183690BB9FFF76CFE06
:1022C000734B9D4201D1756808E0724B9D4201D16C
:1022D000B56803E0704B9D4208BFF568AB891807ED
:1022E0000AD52B6943B10023099320238DF82930A7
:1022F00030238DF82A3038E03046294600F0C4FA01
:102300000028F0D04FF0FF30BFE0039A111D126893
:102310000391002A70DB0792013423782E2B7DD0A5
:102320005E4F21783846032200F03AFC30B1C71BDB
:10233000049B4020B840034304930134217858485B
:102340008DF828100622671C00F02AFC002800F0F7
:102350008A80544B002B7DD1039B073323F0070366
:1023600008330393099B434409933B461C4613F8E7
:10237000012B1AB9B4EB07090ED002E0252AF5D1DA
:10238000F8E7304629463A464B46FFF77AFF0130D8
:1023900076D0099B4B4409932378002B70D00023FF
:1023A0004FF0FF3204930793059206938DF8533054
:1023B0001A9304F101094C463B4F21783846052217
:1023C00000F0EEFB09F10109049B28B1C71B0120B5
:1023D000B84003430493EEE7D90644BF20228DF8AA
:1023E00053201A0744BF2B228DF8532022782A2A23
:1023F0008BD0079B214605E0524243F0020307922F
:10240000049389E70C4601312278303A092A03D82F
:102410000A2000FB0323F5E707937EE763782A2B66
:102420000AD1039B1A1D1B680392002B04F10204BE
:10243000B8BF4FF0FF330BE0611C00230C460131A5
:102440002278303A092A03D80A2000FB0323F5E753
:10245000059365E703AB0093304604A92A46134B66
:10246000AFF3008007E003AB0093304604A92A468F
:102470000E4B00F08FF8B0F1FF3F80467FF472AF53
:10248000AB895B063FF53EAF09981DB0BDE8F08310
:10249000D0300000F0300000103100003E3100006C
:1024A00042310000000000003831000083220000AB
:1024B0002DE9F84315461F468A680B69DDF8208030
:1024C0009A42A8BF13462B6091F8432006460C465B
:1024D0000AB101332B602368990602D52B680233B9
:1024E0002B60236813F006091DD094F8433022684E
:1024F000003318BF012392061FD5E1185A1C302063
:1025000081F84300224494F8451082F843100233C6
:1025100013E03046394604F119020123C047013067
:1025200007D009F10109E2682B68D31A9945F0DB5D
:10253000DBE74FF0FF30BDE8F8833046394604F161
:102540004302C0470130F4D023682A68E16803F0F1
:102550000603042B08BFC2EB01052369A2680CBF68
:1025600025EAE57500259A42C4BFC3EB0203ED18C6
:102570004FF00009A9450ADA3046394604F11A023B
:102580000123C0470130D4D009F10109F2E700204E
:10259000BDE8F8832DE9FF470E7E0C9D6E2E804628
:1025A0000C4691469A4601F1430000F0A58011D8EF
:1025B000632E22D009D8002E00F0AF80582E40F0B4
:1025C000BF8081F845607B4A4FE0642E1ED0692EA3
:1025D0001CD0B5E0732E00F0A48009D86F2E2BD04C
:1025E000702E40F0AD800B6843F020030B6038E0A4
:1025F000752E21D0782E34D0A2E02B681A1D1B68CE
:102600002A6001F1420781F842309DE022682B6880
:1026100012F0800F03D01A1D2A601D6805E05106D4
:10262000F9D51A1D2A60B3F90050002D39DA2D238F
:102630006D4284F8433034E022682B6812F0800F3A
:1026400003D01A1D2A601D6804E05206F9D51A1D30
:102650002A601D88237E574A6F2B14BF0A23082344
:102660001BE07823544A84F845302368296813F026
:10267000800F01F104062E6001D00D6802E05F06B4
:10268000FBD50D88DE0744BF43F0200323601DB94E
:10269000236823F0200323601023002184F84310D3
:1026A00001E0444A0A236668A660002E03DB216825
:1026B00021F00401216005B96EB104F14201B5FBBE
:1026C000F3F603FB16550F46555D01F801593546E3
:1026D000002EF4D100E00746082B0AD12368DD075D
:1026E00007D5626823699A4203DC302307F8013C6E
:1026F000013FC01B20612CE009682B68626911F062
:10270000800F04D0191D29601B681A6005E0490676
:10271000F8D5191D29601B681A800023236107461C
:1027200017E02B681A1D2A601F683846FFF78BFDDB
:1027300063682061984288BF23612369636005E074
:1027400004F1420784F8426001232361002384F8E6
:102750004330CDF800A04046214603AA4B46FFF780
:10276000A7FE013002D14FF0FF301FE0404649463E
:102770003A462369D0470130F5D023689B0705D43A
:10278000E068039B9842B8BF18460FE00025E26856
:10279000039BD31A9D42F3DA4046494604F11902DD
:1027A0000123D0470130DED00135F0E704B0BDE8A9
:1027B000F08700BF493100005A31000070B50E4665
:1027C0001446054618B183690BB9FFF7E5FB224BA8
:1027D0009C4201D16C6808E0204B9C4201D1AC685E
:1027E00003E01F4B9C4208BFEC68A369A360A38968
:1027F0001A0709D523693BB123692068C01A6369A8
:102800009842F6B20FDB08E02846214600F03CF87B
:102810000028F1D04FF0FF3070BD2846214600F06F
:1028200035F90028F6D1A368013BA36023685A1C40
:1028300022601E7063690130984204D0A389DB07CF
:1028400007D50A2E05D12846214600F01FF9002899
:10285000E0D1304670BD00BFD0300000F030000045
:102860001031000038B5074C0546002020600846AE
:1028700011461A46FFF7E0F9431C02D1236803B161
:102880002B6038BD2C0A0020324B70B51D680646FF
:102890000C4625B1AB6913B92846FFF77DFB2E4BDB
:1028A0009C4201D16C6808E02C4B9C4201D1AC6881
:1028B00003E02B4B9C4208BFEC68A28993B2190736
:1028C00020D4DD0605D4092342F040023360A28102
:1028D0003BE0580712D5616B41B104F144039942C2
:1028E00002D0304600F06CF900236363A38923F023
:1028F0002403A3810023636023692360A38943F039
:102900000803A38123694BB9A38903F42073B3F5AA
:10291000007F03D03046214600F0F4F8A38913F07D
:10292000010205D00022A26062695242A26103E066
:10293000990758BF6269A26022694AB903F0800012
:1029400080B230B143F04003A3814FF0FF3070BD3F
:10295000002070BD80000020D0300000F03000006A
:102960001031000038B5064C0023054608462360A8
:10297000FFF7BCF8431C02D1236803B12B6038BDBC
:102980002C0A00208A892DE9F041054610070C46E3
:1029900057D44B68002B02DC0B6C002B18DDE66A69
:1029A000B6B102F48052002392B22F682B600AB1B4
:1029B000626D10E0216A28460123B047411C02469F
:1029C00009D12B683BB11D2B01D0162B46D12F60AE
:1029D0000020BDE8F081A3895B0705D56368D21AA2
:1029E000636B0BB1236CD21AE66A216A2846002376
:1029F000B047461CA28905D12B681BB11D2B01D005
:102A0000162B19D100236360D1042369236004D5F8
:102A1000421C01D12B6803B96065616B2F600029EE
:102A2000D6D004F14403994202D0284600F0C8F8F9
:102A300000206063BDE8F08142F04002A281BDE861
:102A4000F0810E69002EC3D00B680E60C6EB030840
:102A500093070CBF4B6900238B6012E0A38943F0FE
:102A60004003A3814FF0FF30BDE8F081A76A216ADF
:102A7000284632464346B8470028EFDD0644C0EBFF
:102A80000808B8F1000FF1DCA2E7000038B50B69C7
:102A900005460C46DBB118B183690BB9FFF77CFA28
:102AA0000C4B9C4201D16C6808E00B4B9C4201D15D
:102AB000AC6803E0094B9C4208BFEC68B4F90C30E9
:102AC0002BB128462146BDE83840FFF75BBF002008
:102AD00038BD00BFD0300000F030000010310000E1
:102AE00038B5074C054600202060084611461A46B6
:102AF000FFF72AF8431C02D1236803B12B6038BDCD
:102B00002C0A0020F0B58B899E0791B005460C4633
:102B100026D4B1F90E10002909DAA38913F0800F29
:102B20004FF0000714BF40264FF480660DE001AA65
:102B300000F09CF80028F0DB029F07F47047B7F51F
:102B400000514F424F414FF4806628463146FFF70F
:102B5000BBFA60B9A3899A051DD443F00203A3818F
:102B600004F14703236023610123636113E00B4BEE
:102B7000AB62A389206043F08003A381206166617A
:102B80004FB12846B4F90E1000F082F818B1A389AD
:102B900043F00103A38111B0F0BD00BFF11E00009E
:102BA00010B5C9B202449042034606D01C788C424C
:102BB00000F10100F7D1184610BD002010BD000043
:102BC00030B500293CD051F8042C0B1F1D49002AB8
:102BD000B8BF9B180A680C4612B95A600B6030BD2A
:102BE00093420DD219685818904203D15A58114493
:102BF000426819605A60236030BD994203D80A4682
:102C000051680029F9D1146815199D420AD11B6831
:102C10002344D0188842136012D10868034413601B
:102C20004B680CE002D90C23036030BD18681C18F7
:102C30008C4203D10C684968204418605960536085
:102C400030BD00BF0C01002038B5074C0546002000
:102C50002060084611461A46FEF784FF431C02D145
:102C6000236803B12B6038BD2C0A002038B5074C0F
:102C700000230546084611462360FEF749FF431C22
:102C800002D1236803B12B6038BD00BF2C0A00209D
:102C900038B5064C0023054608462360FEF748FF7A
:102CA000431C02D1236803B12B6038BD2C0A0020DD
:102CB000F8B500BFF8BC08BC9E467047F8B500BF29
:102CC000F8BC08BC9E4670470500000000000000EC
:102CD00040420F000501000000000000000000005D
:102CE00053797374656D2068617320626F6F7465CA
:102CF000640A000053656E64696E6720636F6D6DD2
:102D0000616E643A20776966695F636D645F736DB5
:102D1000655F7365745F6F7065726174696E675F1C
:102D20006D6F64652832290A00000000436F6D6DE5
:102D3000616E6420726573706F6E73652072656377
:102D400065697665643A20776966695F7273705F5A
:102D5000736D655F7365745F6F7065726174696EC2
:102D6000675F6D6F64655F69640A000053656E6438
:102D7000696E6720636F6D6D616E643A2077696676
:102D8000695F636D645F736D655F776966695F6FC7
:102D90006E0A0000436F6D6D616E64207265737022
:102DA0006F6E73652072656365697665643A207736
:102DB0006966695F7273705F736D655F7769666975
:102DC0005F6F6E5F69640A004576656E7420726598
:102DD0006365697665643A20776966695F657674CC
:102DE0005F736D655F776966695F69735F6F6E0AB0
:102DF0000000000053656E64696E6720636F6D6D3F
:102E0000616E643A20776966695F636D645F7463BD
:102E10007069705F636F6E6669677572650A00003E
:102E2000436F6D6D616E6420726573706F6E736554
:102E30002072656365697665643A20776966695FC3
:102E40007273705F74637069705F636F6E666967D9
:102E50007572655F69640A004576656E74207265F7
:102E60006365697665643A20776966695F6576743B
:102E70005F74637069705F636F6E666967757261B6
:102E800074696F6E5F69640A0000000053656E64C8
:102E9000696E6720636F6D6D616E643A2077696655
:102EA000695F636D645F736D655F73746172745F96
:102EB00061705F6D6F64650A00000000436F6D6DA7
:102EC000616E6420726573706F6E736520726563E6
:102ED00065697665643A20776966695F7273705FC9
:102EE000736D655F73746172745F61705F6D6F6441
:102EF000655F69640A0000004576656E742072653E
:102F00006365697665643A20776966695F6576749A
:102F10005F736D655F61705F6D6F64655F73746132
:102F2000727465645F69640A0000000053656E6432
:102F3000696E6720636F6D6D616E643A20776966B4
:102F4000695F636D645F68747470735F656E6162FE
:102F50006C650A00436F6D6D616E642072657370FD
:102F60006F6E73652072656365697665643A207774
:102F70006966695F7273705F68747470735F656EA1
:102F800061626C655F69640A0000000053656E64ED
:102F9000696E6720636F6D6D616E643A2077696654
:102FA000695F636D645F74637069705F737461728D
:102FB000745F7463705F7365727665720A000000F7
:102FC000436F6D6D616E6420726573706F6E7365B3
:102FD0002072656365697665643A20776966695F22
:102FE0007273705F74637069705F73746172745F21
:102FF0007463705F7365727665725F69640A00005E
:10300000436C69656E74206A6F696E6564207769C8
:103010007468204D414320253032582025303258E5
:103020002025303258202530325820253032582083
:10303000253032580A000000436C69656E74206CBC
:103040006566742077697468204D414320253032CD
:10305000582025303258202530325820253032581B
:10306000202530325820253032580A0025630000D0
:10307000556E706172736564204576656E740A00E2
:1030800048656C6C6F20576F7264202D20546869FE
:103090007320697320576F6E646572204765636B98
:1030A0006F202B2057463132312053504920446540
:1030B0006D6F0A004865617020616E6420737461F1
:1030C000636B20636F6C6C6973696F6E0A0000003C
:1030D00000000000000000000000000000000000F0
:1030E00000000000000000000000000000000000E0
:1030F00000000000000000000000000000000000D0
:1031000000000000000000000000000000000000BF
:1031100000000000000000000000000000000000AF
:10312000000000000000000000000000000000009F
:103130004300000020000020232D302B2000686C6D
:103140004C006566674546470030313233343536CA
:103150003738394142434445460030313233343503
:10316000363738396162636465660000000000002C
:08317000C4CFFF7F0100000045
:10317800C0A80101FFFFFF00C0A801014765636BFC
:103188006F2B574631323100006CDC0200800000A2
:1031980000000000D0300000F030000010310000C6
:1031A8000000000000000000000000000000000017
:1031B80030310000000000000000000000000000A6
:1031C80000000000000000000000000000000000F7
:1031D80000000000000000000000000000000000E7
:1031E80000000000000000000000000000000000D7
:1031F8002000002005010000E100000000000000A0
:0400000300001C716C
:00000001FF
