:1000000000800020C5120000F1120000F112000073
:10001000F1120000F1120000F1120000F1120000D4
:10002000F1120000F1120000F1120000F1120000C4
:10003000F1120000F1120000F1120000F1120000B4
:10004000F1120000F1120000F1120000F1120000A4
:10005000F1120000F1120000F1120000F112000094
:10006000F1120000F1120000F1120000F112000084
:10007000F1120000F1120000F1120000F112000074
:10008000F1120000F1120000F1120000F112000064
:10009000F1120000F1120000F1120000F112000054
:1000A000F1120000F1120000F1120000F112000044
:1000B000F1120000F1120000F1120000F112000034
:1000C000F1120000F1120000F1120000F112000024
:1000D000F1120000F1120000F1120000F112000014
:1000E00010B5054C237833B9044B13B10448AFF372
:1000F00000800123237010BD740000200000000068
:100100008C15000008B5064B1BB106480649AFF335
:1001100000800648036813B1054B03B1984708BD3A
:10012000000000008C150000780000207000002006
:1001300000000000154B002B08BF134B9D46A3F594
:10014000803A00218B460F461348144A121A01F0D8
:10015000F1F90F4B002B00D098470E4B002B00D02D
:1001600098470020002104000D000D48002802D00F
:100170000C48AFF3008001F0B7F92000290000F02F
:1001800005F901F09DF900BF000008000080002083
:10019000000000000000000074000020B8010020F2
:1001A000000000000000000080B500AF00F006F87D
:1001B00000F018F800F056F880BD00BF80B500AF21
:1001C0005120052100F082FD0448012100F05EFB72
:1001D0000348012100F05AFB80BD00BF001202005D
:1001E00000D20200B0B588B000AF1B4B07F1080485
:1001F0001D460FCD0FC495E8030084E80300174B9C
:100200003B6105233B7501237B750123BB754FF4CF
:1002100000733B830023BB760023FB7600233B77F0
:1002200007F108030E48194600F040FF00233B7118
:1002300000237B710023BB710023FB7100237B71C2
:100240000023BB710023FB713B1D0548194600F0DC
:1002500091FF2037BD46B0BD60150000A0860100AB
:1002600000C4004080B400AF204B204AD26E22F080
:10027000030242F00202DA661C4B1C4A126F22F0A3
:100280000F0242F004021A67184B184A126F22F04C
:10029000F00242F010021A67144B144A126F22F453
:1002A000706242F480621A67104B104A126F22F497
:1002B000704242F480421A670D4B0D4A926A22F452
:1002C000E06242F480729A620A4B0A4A526D22F44A
:1002D000E06242F480725A65064B064A526D42F063
:1002E0000F025A65BD465DF8047B70470060004010
:1002F0000060084000C4004080B400AFBD465DF817
:10030000047B704790B585B000AFB9607B60034651
:10031000FB731346BB8112E0194B1B785A1CD1B2F8
:10032000174A11701C46BB685A1CBA601B781548E6
:10033000194600F0A7FF03461A46134B1A55FB7BDC
:100340005A1EFA73002BE7D112E00D4B1B785A1C92
:10035000D1B20B4A11701C467B685A1C7A601B781C
:100360000848194600F08EFF03461A46064B1A55F8
:10037000BB895A1EBA81002BE7D11437BD4690BD08
:100380009000002000C40040B000002090B587B06D
:1003900000AF5D4A3B461068516803C31189927AE9
:1003A00019809A70FFF7A8FFFFF7FEFE574B574AD8
:1003B000126842F480321A60554B564A1A60564B06
:1003C00004221A71544A5368012161F317235360C0
:1003D000514B0022DA7100221A724F4B4F4A1A60B9
:1003E0004B4B1C6809204C4900220023A0474A4B74
:1003F00004221A71484A5368012161F3172353609C
:10040000454B002242F00102DA7100221A72424B7F
:10041000434A1A603E4B1C6809203F4900220023D2
:10042000A0473D4B02221A713B4B3E4A1A60384BA3
:100430001C680520384900220023A047364B3A4A61
:100440001A60334B1C680420334900220023A04764
:10045000314B00221A71304B344A1A602C4B1C6805
:1004600005202D4900220023A047C0233B75A82367
:100470007B750123BB750123FB7500233B74FF23B0
:100480007B74FF23BB74FF23FB74C0233B73A8233F
:100490007B730123BB730123FB737A691E4B5A6084
:1004A0003A691D4B9A60FA681B4BDA601A4B0022BE
:1004B0001A74194B1E4A1A60154B1C6811201649F4
:1004C00000220023A047144B0B221A71124B00226A
:1004D0005A71114B0B229A710F4B9B7903331A0AF5
:1004E0000D4B9B7903331B029BB21A43114B1343F1
:1004F000094A1360064B1C68074B9B791A463B461A
:1005000007200549A047FEE77815000000C4004019
:1005100098000020050300009C0000200805060448
:10052000080506060801030A080003000801010384
:10053000080D04040800030B80B487B000AFF86016
:10054000B9607A60FB6803F10473DA00BB68134496
:100550009B007B617B697A681A601C37BD465DF839
:10056000047B704780B485B000AF7860284BDB6BAC
:10057000002B0CBF00230123BB72254B41F67132C7
:10058000DA63234B5B6803F00703FB60FB68012B16
:1005900001D9042B02D10023FB7202E00123FB727C
:1005A00000BF7A681B4B9A4207D9FB7A002B01D017
:1005B000052300E00423FB6016E07A68154B9A429D
:1005C0000BD87A68144B9A4207D9FB7A002B01D0DA
:1005D000032300E00123FB6006E0FB7A002B01D03F
:1005E000022300E00023FB60094B094A526822F015
:1005F0000701FA680A435A60BB7A002B02D0044B09
:100600000022DA631437BD465DF8047B704700BFF3
:1006100000000C400048E8010024F40080B582B0DE
:1006200000AF044B7B607868FFF79CFF0837BD463E
:1006300080BD00BF006CDC0280B487B000AF786082
:100640007B68002B04D07B68B3F5004F00D800BF57
:100650007B683B613B69B3FA83F3FB60FB68DBB209
:10066000C3F11F037B617B6918461C37BD465DF8EB
:10067000047B704780B582B000AF104800F074FA78
:100680000346FB70FB78032B07D0082B09D0022B05
:100690000BD100F009FF78600AE000F0F1FE78600D
:1006A00006E000F059FE786002E000237B6000BFA6
:1006B0007B6818460837BD4680BD00BF05231C0077
:1006C00080B483B000AF1A4B5B6903F4E063B3F509
:1006D000007F14D0B3F5007F05D8002B15D0B3F5FB
:1006E000807F0FD01AE0B3F5C06F14D0B3F5E06F80
:1006F0000ED0B3F5407F11D10E4B7B6011E00E4B55
:100700007B600EE00D4B7B600BE00D4B7B6008E0E7
:100710000C4B7B6005E00C4B7B6002E000237B60B0
:1007200000BF7B6818460C37BD465DF8047B7047F8
:1007300000800C4040420F00C0CF6A00C0D8A70024
:10074000809FD500406F4001003FAB0180B582B073
:1007500000AF124800F008FA0346FB70FB78072B45
:100760000FD0082B11D100F0F7FD78600C4B1B68FF
:1007700003F4E0339B0B01337A68B2FBF3F37B6045
:1007800006E0FFF79DFF786002E000237B6000BF7A
:100790007B6818460837BD4680BD00BF04001800BE
:1007A00000800C4080B584B000AF78607B68002B7F
:1007B00002D07B68012B00D100BF264B9A6A7B6870
:1007C0005B0022FA03F303F00303032B3AD801A2E0
:1007D00052F823F025080000E5070000ED070000AF
:1007E000F507000000F04CFEF8602EE000F05CFE23
:1007F000F8602AE0174B5B6803F48073002B05D187
:10080000144B1B6803F08043002B05D000F080FDE3
:1008100003469B08FB6018E000F07AFD03465B0886
:10082000FB6012E00B4B9A6A7B6804339B0022FA50
:1008300003F3002B03D000F02DFEF86005E0002349
:10084000FB6002E00023FB6000BFFB681846103726
:10085000BD4680BD00800C4080B483B000AF78609E
:10086000094B5B6D03F00103002B00D006E000BFD5
:10087000054B1A6D7B681340002BF9D10C37BD4630
:100880005DF8047B704700BF00800C4080B586B0E7
:1008900000AF78600B46FB7000233B617B681B0A4E
:1008A00003F00F03013B052B48D801A252F823F0B7
:1008B000C9080000CF080000D5080000FF080000AC
:1008C00009090000130900001E4B7B6124E01E4B48
:1008D0007B6121E01D4B7B611D4800F047F802461B
:1008E0001C4B9A420AD91C481E210122FFF724FE04
:1008F0001A4808210122FFF71FFE0DE00CE0184BFB
:100900007B6101233B6107E0164B7B6110233B6158
:1009100002E0154B7B6100BF7B681B0B03F01F03DC
:10092000FB603B69002B02D03869FFF795FFFB782D
:100930007869F9681A46FFF7FFFD00E000BF183735
:10094000BD4680BD08800C4044800C4040800C4077
:100950002000040000366E0100800C4004800C4032
:1009600058800C4060800C4078800C4090B585B079
:1009700000AF78607B6803F47813B3F5602F00F064
:100980009980B3F5602F18D8B3F5C02F5ED0B3F5BA
:10099000C02F08D8B3F5003F3ED0B3F5802F51D01B
:1009A000002B2BD0D6E0B3F5202F62D0B3F5402F2B
:1009B0006DD0B3F5002F4ED0CCE0B3F5B01F00F0F2
:1009C000AF80B3F5B01F0CD8B3F5901F00F0968040
:1009D000B3F5A01F00F09780B3F5801F00F0818071
:1009E000B8E0B3F5D01F00F0AD80B3F5E01F00F024
:1009F000AD80B3F5C01F00F0A180ABE000F0ACFC0F
:100A0000F860584B1B6803F4E0339B0B0133FA6822
:100A1000B2FBF3F3FB60A0E000F09EFCF860514BEA
:100A20001B6803F4E0339B0B0133FA68B2FBF3F36A
:100A3000FB604C4B9B6803F00F03FA6822FA03F348
:100A4000FB608AE000F064FCF86086E00020FFF7BD
:100A5000A9FEF86081E00020FFF7A4FEF860414B9A
:100A60009B6E03F0F0031B09FA6822FA03F3FB60A4
:100A700073E00020FFF796FEF8603A4B9B6E03F49C
:100A800070631B0AFA6822FA03F3FB6065E000203A
:100A9000FFF788FEF860334B9B6E03F440531C0B4A
:100AA0001020FFF7C9FD03462344FA6822FA03F336
:100AB000FB6052E00020FFF775FEF860294B9B6E4B
:100AC00003F440531B0BFA6822FA03F3FB60254B37
:100AD000DB6F03F007030133FA68B2FBF3F3FB604B
:100AE0003BE00020FFF75EFEF8601E4B9B6E03F0BC
:100AF0000303FA6822FA03F3FB602EE00120FFF7FC
:100B000051FEF86029E00120FFF74CFEF860154B1C
:100B10001B6F03F00303FA6822FA03F3FB601CE087
:100B20000120FFF73FFEF8600E4B1B6F03F0300310
:100B30001B09FA6822FA03F3FB600EE0FFF706FEDA
:100B4000F8600AE0FFF7BCFDF86006E0FFF792FDF1
:100B5000F86002E00023FB6000BFFB681846143712
:100B6000BD4690BD00800C4080B487B000AF786077
:100B70000123FB754FF470533B617B6803F00F0357
:100B8000FB60FB68013B042B00F2938001A252F84A
:100B900023F000BFA90B0000DF0B00001B0C0000BE
:100BA000570C00007D0C0000474BDA6A3B6913408C
:100BB000B3F5805F09D0B3F5005F03D0B3F5006FE4
:100BC00006D008E00223FB7508E00323FB7505E06F
:100BD0000423FB7502E00523FB7500BF6CE03A4B74
:100BE0009B6A03F00303022B06D0032B07D0012BD3
:100BF00008D10323FB750FE00223FB750CE00623ED
:100C0000FB7509E0304B9B6A03F48033002B02D064
:100C10000923FB7500E000BF4EE02B4B9B6A03F0FD
:100C20000C03082B06D00C2B07D0042B08D1032370
:100C3000FB750FE00223FB750CE00623FB7509E052
:100C4000214B9B6A03F48013002B02D00923FB7510
:100C500000E000BF30E00723FB751B4B1B6803F06F
:100C60008053002B03D0B3F1805F03D024E007232F
:100C7000FB7502E00823FB7500BF1DE0124BDB6A29
:100C800003F46033B3F5803F06D0B3F5003F06D0E0
:100C9000B3F5004F06D008E00223FB7508E00323FC
:100CA000FB7505E00823FB7502E00123FB7500BF1F
:100CB00002E00023FB7500BFFB7D18461C37BD46D4
:100CC0005DF8047B704700BF00800C4080B588B0A1
:100CD00000AF78600B46FB700323FB610323FB76B8
:100CE00000237B617B6803F00F03FB60FB68013B23
:100CF000042B00F2268101A252F823F0110D00000E
:100D0000D90D0000D90D0000B10E0000DB0E00006F
:100D1000FB78023B072B00F2168101A252F823F068
:100D2000410D00004B0D0000550D0000A50D000009
:100D3000470F0000470F0000470F0000AF0D0000F5
:100D40000423FB610023FB7632E00323FB610123D4
:100D5000FB762DE00223FB610223FB7600F074FB9F
:100D600002467C4B9A4213D97B4A7B4B1B6843F06B
:100D7000804343F060031360774B1B6C03F0100358
:100D8000002B0ED0754808210122FFF7D5FB0FE09C
:100D9000714B714A126822F0600242F020021A6020
:100DA00006E005E00123FB610323FB7600E000BFC2
:100DB000FB7E18460121012200F0D4F8FFF72EFC3B
:100DC000654BFA695A6200F02DF900F0A1FAB8609B
:100DD000B868FFF7C7FBB9E0FB78013B082B00F2CE
:100DE000B48001A252F823F00D0E0000130E000093
:100DF000230E00004B0F00004B0F0000330E0000CD
:100E00004B0F00004B0F0000670E000000233B61FA
:100E10002EE000200121012200F0A4F802233B6112
:100E200026E001200121012200F09CF801233B6112
:100E30001EE04B4804210122FFF77EFB03233B61A8
:100E400000F066FAB860BA68424B9A420AD9424842
:100E50001E210122FFF770FB404808210122FFF705
:100E60006BFB05E004E000233B6101237B6100BFD5
:100E7000FB68022B0DD1384A374B9B6A23F4803331
:100E800023F00303396919437B691B040B43936205
:100E90005CE0314A304B9B6A23F4801323F00C034F
:100EA0003969890019437B691B050B4393624DE047
:100EB000FB78072B02D0082B07D047E0264B264AA9
:100EC000126822F080521A6006E0234B224A126810
:100ED00042F080521A6000BF38E0FB78032B14D038
:100EE000082B22D0022B00D030E00020012101226B
:100EF00000F038F8184B40225A6200BF164BDB6AEC
:100F000003F48033002BF9D01AE0012001210122E3
:100F100000F028F8104B60225A6200BF0E4BDB6ACB
:100F200003F40033002BF9D00AE00B4B20225A6265
:100F300000BF094BDB6A03F40043002BF9D000BF6C
:100F400004E000BF02E000BF00E000BF2037BD4664
:100F500080BD00BF00366E0100800C4004800C4054
:100F600040800C4080B586B000AF13460246FA714F
:100F70000A46BA717B71FB79052B4CD801A252F855
:100F800023F000BFD50F0000C70F0000AB0F00001B
:100F90009D0F0000B90F00001710000001233B61F6
:100FA0000223FB6002237B611EE004233B610823D4
:100FB000FB6008237B6117E010233B612023FB606B
:100FC00020237B6110E040233B618023FB60802372
:100FD0007B6109E04FF480733B614FF40073FB6069
:100FE0004FF400737B6100BFBB79002B0DD00C4B1D
:100FF0003A691A627B79002B0AD000BF084BDA6A83
:101000007B691340002BF9D002E0054BFA681A62A5
:1010100000F008F800E000BF1837BD4680BD00BFF3
:1010200000800C4080B400AF034BDA6A034B1A60B7
:10103000BD465DF8047B704700800C4094000020A2
:1010400080B586B000AFF860B9607A60BB68002BED
:1010500003D11448FFF78AFCB860BB685B007B6172
:101060007A687B691344013B7B617A697B68B2FBD8
:10107000F3F37B617B69043B7B617B699B017B6153
:101080007B69C0337B617B6923F0FF037B617A69F5
:10109000054B13407B61FB687A695A611837BD467E
:1010A00080BD00BF10810200C0FF1F0080B582B06C
:1010B00000AF786039607A682B4B9A4207D07A6823
:1010C0002A4B9A4203D07A68294B9A4200D100BF3A
:1010D000786800F07FF87B681A683B681B8A43F0E9
:1010E00001039BB219463B689B7B002B02D04FF457
:1010F000806300E000230B431A437B681A607B681F
:1011000019683B689B7C002B01D0102200E0002274
:101110003B681B7D002B02D04FF0005300E0002302
:10112000134341EA03027B681A603B681B7B43F46C
:1011300080527B685A603B685A683B689B68786855
:1011400011461A46FFF77CFF3B685B7B002B02D001
:101150007B681022DA603B681B781A467B68DA608D
:101160000837BD4680BD00BF00C0004000C400403D
:1011700000C8004080B485B000AF786039607B68FB
:101180009B6823F07703FB603B681B78002B03D040
:10119000FB6843F04003FB603B689B78002B03D067
:1011A000FB6843F02003FB603B685B78002B03D0B7
:1011B000FB6843F01003FB603B68DB78FA6813437D
:1011C000FB607B68FA689A601437BD465DF8047B63
:1011D000704700BF80B483B000AF78607A68244B5A
:1011E0009A420FD07A68234B9A420BD07A68224BEE
:1011F0009A4207D07A68214B9A4203D07A68204BF2
:101200009A4200D100BF7B6840F6AA62DA607B6830
:1012100000221A607B6841F205025A607B68002256
:101220009A607B6800225A617B680022DA647B68DE
:1012300041F6F9729A647B6800225A657A680C4B11
:101240009A4202D17B6800221A657B6800229A6567
:101250007A68084B9A4203D07A68074B9A4202D1C7
:101260007B680022DA650C37BD465DF8047B704769
:1012700000C0004000C4004000C8004000E0004042
:1012800000E4004080B483B000AF78600B46FB7090
:1012900000BF7B681B6903F04003002BF9D0FA788C
:1012A0007B685A6300BF7B681B6903F02003002B37
:1012B000F9D07B68DB69DBB218460C37BD465DF8B8
:1012C000047B7047064880470649074A074B9A4205
:1012D000BEBF51F8040B42F8040BF8E7FEF72AFFF3
:1012E0006114000098150000000000207400002028
:1012F000FEE700BF80B400AF044BDB6C1B0EDBB21B
:101300001846BD465DF8047B704700BFB081E00F12
:1013100080B582B000AF00F01FF878600C4B1B68FE
:1013200003F4E0339B0B01337A68B2FBF3F37B6089
:10133000074B5B6803F00F037A6822FA03F37B60C4
:10134000044B7A681A607B6818460837BD4680BD32
:1013500000800C40B401002080B582B000AF2F4B5C
:10136000DB6A03F47053B3F5805F0AD0B3F5005F16
:1013700003D0B3F5006F08D00BE0294B1B687B60EE
:1013800047E04FF400437B6043E0264B1B687B60E3
:101390003FE0224BDB6803F4E063B3F5007F1BD032
:1013A000B3F5007F05D8002B24D0B3F5807F16D08D
:1013B0002BE0B3F5806F09D0B3F5A06F03D0B3F580
:1013C000407F06D021E0184B7B6021E0174B7B600B
:1013D0001EE0174B7B601BE0164B7B6018E0FFF7AD
:1013E00089FF0346122B02D9134B7B6010E0134B8D
:1013F0007B600DE0FFF77EFF0346122B02D9104BF6
:101400007B6005E00F4B7B6002E000237B6000BF48
:1014100000BF7B6818460837BD4680BD00800C4081
:101420000400002000000020003FAB01406F40019D
:10143000809FD500C0D8A70040B56400C0CF6A0027
:10144000804F120040420F0080B400AF034B1B6876
:101450001846BD465DF8047B704700BF00000020C1
:1014600080B400AF054B054AD2F8882042F47002E0
:10147000C3F88820BD465DF8047B704700ED00E0AE
:1014800080B400AF4FF400431846BD465DF8047BBE
:10149000704700BF80B400AF4FF47A731846BD4662
:1014A0005DF8047B704700BF80B400AF034B1B683E
:1014B0001846BD465DF8047B704700BF040000205D
:1014C00008B5074B044613B10021AFF30080054B6C
:1014D0001868836A03B19847204600F033F800BFCC
:1014E000000000008815000070B50E4B0E4DED1A7F
:1014F000AD1000241E46AC4204D056F8242090477C
:101500000134F8E700F020F8084D094BED1AAD1052
:1015100000241E46AC4204D056F8242090470134E3
:10152000F8E770BD68000020680000206C00002013
:101530006800002002440346934202D003F8011BD6
:10154000FAE77047FEE700BFF8B500BFF8BC08BC7B
:101550009E467047F8B500BFF8BC08BC9E46704771
:10156000050000000000000040420F0005010000DF
:1015700000000000000000004765636B6F2B5746BA
:10158000313231004300000008000020000000005C
:08159000A4EBFF7F0100000045
:10159800006CDC0200800000000000000000000079
:1015A8000000000000000000000000000000000033
:1015B800000000000000000084150000000000008A
:1015C8000000000000000000000000000000000013
:1015D8000000000000000000000000000000000003
:1015E80000000000000000000000000000000000F3
:1015F800000000000000000005010000E1000000FC
:0416080000000000DE
:04000003000012C522
:00000001FF
